:100000000C94D0020C94ED020C94ED020C94202977
:100010000C94ED020C94ED020C94ED020C94ED02A4
:100020000C94ED020C94ED020C94E90F0C941B144B
:100030000C94F7220C94ED020C94ED020C94ED025A
:100040000C94ED020C94ED020C94ED020C94ED0274
:100050000C94ED020C94C1100C94ED020C94ED0282
:100060000C94ED020C94ED020C94ED020C94ED0254
:100070000C94ED020C94ED020C94ED020C94ED0244
:100080000C94ED020C94ED020C94ED020C94ED0234
:100090000C94ED020C94ED020C94ED020C94ED0224
:1000A0000C94ED020C94ED020C94ED0214001A0075
:1000B000090013000500000004281524162117224A
:1000C0000A0000001D431B34060007001900000051
:1000D00000000000000029462C442B4534001C0081
:1000E00018000F000D00000012280C240821112216
:1000F000100000003843373436000B000E000000BB
:1001000029450000000000002A472B4614001A0071
:1001100008001500170000000428162407210922F2
:100120000A0000001D431B340600190005000000F2
:1001300000000000000029462C442B45130012004B
:100140000C0018001C00000034280F240E210D2282
:100150000B00000038433734360010001100000057
:100160004C490000000000002A47284814001A00EB
:100170000900130005000000040015001600170018
:100180000A0000001D001B00060007001900000007
:1001900000000000000029002C002B0034001C008F
:1001A00018000F000D00000012000C0008001100E4
:1001B000100000003800370036000B000E00000071
:1001C0004C000000000000002A0028007A004C02C9
:1001D0004901490279000000E300E200E000E1008B
:1001E000000000007A004C02490149027900000039
:1001F000000000000000D300D100D2007A004C02C1
:100200004901490279000000E300E200E000E1005A
:10021000000000007A004C02490149027900000008
:10022000D300000000000000D100D20000570357A7
:100230000257015700000000E300E200E000E10087
:10024000000000000000E60008570557000000000D
:100250000000000000000000000000007A004C02D6
:1002600049014902790000004F005200510050003E
:10027000737C00004D004B004E004A004900000016
:100280004C000000000000002A002800005703571F
:100290000257015700000000E300E200E000E10027
:1002A000000000000000E6000957065700000000AB
:1002B0000000000000000000000000007A004C0276
:1002C0004901490279000000D000CD00077ED2002C
:1002D000D1000000DC00D900DA00DB0000000000E3
:1002E000D300000000000000D100D20000570357E7
:1002F0000257015700000000E300E200E000E100C7
:10030000000000000000E6000A5707570000000048
:1003100000000000000000000000000027782578A1
:100320002378217820780000AB00A900AA00AC0057
:10033000000000000000000000000000207C000021
:10034000A800000000000000AE00AD002F00240057
:100350002500260030000000330021002200230089
:100360002E00000035001E001F002000310000009C
:10037000000000000000370027002D000057035741
:100380000257015700000000E300E200E000E10036
:10039000000000000000E6000557085700000000BC
:1003A0000000000000000000000000002F022402F6
:1003B000250226023002000033022102220223021B
:1003C0002E02000035021E021F0220023102000030
:1003D000000000000000260227022D0200570357EC
:1003E0000257015700000000E300E200E000E100D6
:1003F000000000000000E60006570957000000005A
:100400000000000000000000000000004500400067
:10041000410042004600000044003D003E003F0015
:100420004700000043003A003B003C004800000049
:1004300000000000000065002C002B00005703574F
:100440000257015700000000E300E200E000E10075
:10045000000000000000E60007570A5700000000F7
:10046000000000000000000000000000050109027B
:10047000A10185020901A10005091901290815003A
:1004800025019508750181020501093009311581A1
:10049000257F95027508810609381581257F95010C
:1004A00075088106050C0A38021581257F950175AE
:1004B000088106C0C005010980A101850319012A30
:1004C000B700150126B700950175108100C0050C15
:1004D0000901A101850419012AA002150126A00223
:1004E000950175108100C005010906A101050719D4
:1004F000E029E71500250195087501810295017530
:100500000881010507190029FF150026FF0095063F
:1005100075088100050819012905950575019102E5
:10052000950175039101C009023B00020100A0FA88
:100530000904000001030101000921110100012249
:1005400040000705810308000109040100010300C0
:100550000000092111010001227B00070582032010
:1005600000011201000200000008575900020001BA
:100570000102000114034B00650079006200610074
:100580006C006C00330039000000100359006F004C
:1005900077006B0065006500730000000403090428
:1005A00011241FBECFEFDAE0DEBFCDBF12E0A0E026
:1005B000B1E0E4E0F6E502C005900D92A038B10785
:1005C000D9F724E0A0E8B2E001C01D92A031B20743
:1005D000E1F70E9420230C94002B0C940000E8ED1E
:1005E000F0E080818E7F80831092E2001092DA002A
:1005F0001092E100A0EEB0E08C9181608C9380813C
:100600008F77808319BCA7EDB0E08C918E7F8C939F
:1006100080818F7E80831092F60308952091E400FC
:100620003091E50085E69091EC0090FF06C0909136
:10063000E80090FF06C080E008959091E80092FDE8
:10064000FACF90910404992391F0953091F0909114
:10065000EB0095FD10C04091E4005091E500241797
:10066000350709F381509A01F1F684E0089582E09C
:10067000089583E0089581E008958091060487FF3E
:1006800013C08091E80082FF06C08091E8008B775C
:100690008093E80004C0809104048111F2CF089592
:1006A000809104048823D9F38091E80080FFF8CF7B
:1006B0008091E8008E77ECCF982F9093E900242F5B
:1006C000762F50E0891731F07091EC002091ED0009
:1006D0005091F00021FD07C09F5F973071F7809324
:1006E000E90081E008953091EB003E7F3093EB000C
:1006F0003091ED003D7F3093ED003091EB003160A3
:100700003093EB007093EC002093ED005093F000D9
:100710002091EE0027FDE0CF80E00895B0E0A0E05A
:10072000E4E9F3E00C94472AC8EDD0E088818F7E9D
:100730008883E7EDF0E080818160808384E082BF80
:1007400081E08093F60388818E7F888302EE10E03B
:10075000F80110821092DA0081EEC82ED12CF60139
:10076000108288818F7788838881806888838881D8
:100770008F7D888319BC1092040410920504109296
:1007800003041092020490EEE92EF12CF70180810F
:100790008B7F808388818160888342E060E080E095
:1007A0000E945C03F60180818E7F8083F801808146
:1007B00081608083808188608083F70180818E7F63
:1007C0008083888180618883CDB7DEB7E8E00C94B0
:1007D000632AFC0180910C0490910D048617970701
:1007E000A0F06115710529F49091E8009E7790932F
:1007F000E80090E06115710551F4911108C08091F5
:10080000E80082FF35C080E00895BC01F2CF8091FE
:1008100004048823C9F18530C9F18091E80083FD83
:1008200031C08091E80082FDEACF8091E80080FF2E
:10083000E1CF2091F3008091F200322F282F611533
:10084000710519F02830310558F091E02830310554
:1008500009F090E02091E8002E772093E800CACFBD
:1008600081918093F100615071092F5F3F4FE7CF75
:1008700080910404882341F0853041F08091E800A4
:1008800083FFBDCF81E0089582E0089583E008955D
:100890008091F90308959C014FB7F8948091F20379
:1008A0009091F303A091F403B091F5034FBF821B25
:1008B000930B08952FB7F8946091F2037091F303AE
:1008C0008091F4039091F5032FBF08959C01FC01E2
:1008D00032969FEF80E04191461751F09F3F19F407
:1008E000411101C0982F8F5F8630A9F79F3F09F40F
:1008F0000895290F311D97FD3A95F90162830895F6
:10090000A3E0B0E0E6E8F4E00C944D2A2091EF0378
:100910003091F00328173907A1F09093F0038093EA
:10092000EF03E091ED03F091EE03309751F024E0F6
:1009300029839B838A830680F781E02DCE0101966F
:1009400009952396E2E00C94692AA3E0B0E0EBEA73
:10095000F4E00C944D2A2091EB033091EC0328171E
:100960003907A1F09093EC038093EB03E091ED0342
:10097000F091EE03309751F023E029839B838A8323
:100980000680F781E02DCE01019609952396E2E0DD
:100990000C94692AE091ED03F091EE03309739F061
:1009A00022E0DC012C930480F581E02D0995089567
:1009B000CF93DF93EC014091DD035091DE03609112
:1009C000DF037091E0032FB7F8948091F2039091C8
:1009D000F303A091F403B091F5032FBF841B950B93
:1009E000A60BB70B843F9140A105B10518F5809186
:1009F000DD039091DE03A091DF03B091E0038093CB
:100A0000D9039093DA03A093DB03B093DC0384EF64
:100A100091E0A0E0B0E08093D5039093D603A0933B
:100A2000D703B093D803D093E503C093E403DF91D9
:100A3000CF9108950E945A046093D9037093DA030A
:100A40008093DB039093DC0382E390E0A0E0B0E0CE
:100A5000E2CFFC018781862351F492819923B9F07A
:100A60006923838583FF05C081E061110FC080E0A9
:100A70000895892F8F7092959F70982B862F8F7075
:100A800062956F70682B81E09613F1CF089581E035
:100A9000FDCFFC01680F791F8FEF91E32191822731
:100AA00028E030E087FF09C0880F892721503109ED
:100AB000C9F7E617F70791F70895880FF7CF8091E8
:100AC000990380FD16C081FD16C082FD16C080917D
:100AD00098038823A1F0883280F428E0829FC00127
:100AE000112468E270E00E94BC2A862F672B39F03F
:100AF000089582E0089584E0089588E0089581E0F3
:100B000008958091990380FD17C081FD17C082FD73
:100B100017C0209197032223A9F080E32034A0F48A
:100B2000289F9001112486E0359527958A95E1F755
:100B3000822F232B51F008958CE0089588E10895C9
:100B400080E3089588E00895089581E008958091F4
:100B5000F801F90180830895CF93DF93E8EFF1E086
:100B600083819481A581B681E90188839983AA83D1
:100B7000BB831482138216821582DF91CF91089570
:100B800080E0089563E070E088E093E00E9449050A
:100B900090910703891318C0E0910803EA30A4F488
:100BA00088E0E802F0011124EA5FFE4F0680F78139
:100BB000E02D309749F02BE233E040910A036BE0DF
:100BC00073E08091090309950895E6E0F1E0AEEF46
:100BD000B2E01B968C911B9780A31C968C9183ABE3
:100BE0000895F894E82FE295EF70F0E031A1282FF6
:100BF0002F7081E090E001C0880F2A95EAF7982FC6
:100C00009095932391A392A1892B82A37894089520
:100C10007830B8F46630A8F48A30B0F4E62FF0E00B
:100C200096E0799FE00DF11D112490E3899FE00D7E
:100C3000F11D1124EE0FFF1FE455FF4F8591949194
:100C4000089580E090E0089581E0FCCF811520E5D3
:100C50009207C8F5811540E4940708F08DC0803EE6
:100C6000910518F58D3C910508F07EC0883A9105F4
:100C700070F4853A910508F06EC08130910511F14C
:100C800018F084309105F0F490E080E01BC0833CC4
:100C90009105D0F7885AE82FF0E0EE0FFF1FEB5CCC
:100CA000FD4F8081918194640895811550E29507EC
:100CB00008F0B1C0811521E0920708F057C0883EC6
:100CC000910510F70895803642E5940718F58034B1
:100CD00052E5950708F05AC0803222E5920708F0E5
:100CE0004EC0811542E5940708F47CC0282F269554
:100CF000269550E2259F90011124482F437081E0F2
:100D000090E002C0880F991F4A95E2F7822B932B3F
:100D10009D680895803A52E5950760F4803822E591
:100D2000920708F447C08F7190E0982F8827846F4E
:100D3000906A0895803C42E5940708F44DC0803ED7
:100D400052E5950708F0A0CF982F882788279F7134
:100D5000806F906A0895855AE82FF0E0EE5CFD4FB1
:100D6000808190E0906408959065089520E0392F87
:100D7000A901482BCA0108959F70906A08958F7148
:100D800090E0982F8827816F906A0895982F93702C
:100D900021E030E002C0220F331F9A95E2F73C6851
:100DA00086958695877040E2849FC0011124822B2E
:100DB000932B0895982F937021E030E002C0220F0A
:100DC000331F9A95E2F73A6886958695877050E2C8
:100DD000859FC0011124EBCF8F7190E0982F882759
:100DE000906208959C0195E0369527959A95E1F7D4
:100DF0002F7030E0322F2227482F4F7150E084FFB0
:100E000005C084E0440F551F8A95E1F7C901906938
:100E1000842B952B0895292F2F7199279062922B5F
:100E200008958091F00281111092F002089590913E
:100E30006F0392FF05C09091F00298138093F00227
:100E40000895982F90958091E80389238093E80373
:100E50000895982F90958091F70389238093F70345
:100E600008959091F703892B8093F7030895E2E8A2
:100E7000F2E09281891301C01282319692E0E83843
:100E8000F907B9F708952091E6029091B50256E06E
:100E9000291302C080E0089530E0529FF001539F73
:100EA000F00D1124EA54FD4F7181761306C0708154
:100EB000781303C07281741304C02F5F3F4F2770F3
:100EC000E7CF81E008958091E6029091B5029813F2
:100ED00001C008958F5F8770FACFB0E0A0E0E3E72C
:100EE000F7E00C94462A8C01C0906A03D0906B0303
:100EF000E0906C03F0906D0380916603909167031E
:100F0000A0916803B0916903C82AD92AEA2AFB2A6A
:100F1000CFE1D0E0BC2ED701C6010C2E04C0B6959F
:100F2000A795979587950A94D2F780FD09C02197D8
:100F300088F7B12C8B2DCDB7DEB7E9E00C94622A8F
:100F4000B8018C2F0E9408060E942606019779F3AB
:100F5000F1CFCF93DF93EC010E946D07BE010E9499
:100F600008060E942606DF91CF910895292F983018
:100F700080F5863070F590E036E0239F800D911D5E
:100F80001124682F677023E0969587952A95E1F7DD
:100F900025E0289FF001299FF00D1124EF56FD4F09
:100FA00050E040E080E0219130E0062E02C036950E
:100FB00027950A94E2F721703327042E01C0220FEF
:100FC0000A94EAF7822B4F5F5F4F4530510559F77E
:100FD000089580E00895292F9830A0F5863090F587
:100FE00090E036E0239F800D911D1124282F27705B
:100FF00041E001C0440F2A95EAF723E096958795D2
:101000002A95E1F725E0289FF001299FF00D112492
:10101000EF56FD4F30E020E070E05191DF01119775
:10102000CB01022E02C0969587950A94E2F7817053
:1010300081958527842385278C932F5F3F4F25300B
:10104000310559F7089560936A0370936B03809399
:101050006C0390936D0308950F931F9341E050E04C
:1010600060E070E004C0440F551F661F771F8A952B
:10107000D2F7CB01BA01609570958095909500915B
:101080006A0310916B0320916C0330916D03602310
:101090007123822393230E9423081F910F910895A7
:1010A0009091E702809589238093E702282F27708B
:1010B00091F4282F082E000C330B9217130659F0C9
:1010C00090916F0392FF07C08595859585950E9445
:1010D0002C081092E70208950F931F9341E050E00F
:1010E00060E070E004C0440F551F661F771F8A95AB
:1010F000D2F780916A0390916B03A0916C03B09139
:101100006D038A019B01082B192B2A2B3B2BC9014C
:10111000B8010E9423081F910F9108956093660300
:101120007093670380936803909369030895CF9346
:10113000FC018081918123813481232B39F09F3FF1
:1011400019F491E08F3F19F090E001C091E0C92FB0
:10115000C17090FD1FC0808191810E94A907929566
:101160009F70963091F050F49250923058F4803F36
:1011700019F030F4883E30F4C1E004C09A50F5CF45
:10118000843FD1F38C2FCF910895883EA8F3813FFF
:10119000C9F7F2CFC0E0F6CFA5E0B0E0E2EDF8E0AD
:1011A0000C944C2A49835A8389819A81662399F049
:1011B000222389F00E946D07182F682F89819A8158
:1011C0000E94EB0769817A81812F0E94080625968B
:1011D000E3E00C94682A0E94B607182FF3CF9C0115
:1011E0003A9521153F4150F5FC01EE27F170BC0105
:1011F00066277270AC01442754709C012227387016
:1012000094FF0EC080E0EF2B09F080E1672B09F01E
:101210008062452B09F08064232B89F08068089553
:1012200081E0EF2B09F480E0672B09F08260452B09
:1012300009F08460232B19F08860089580E00895F8
:10124000FC018281823031F460E072E080E090E065
:101250000E948E080895FC018281823031F460E0A2
:1012600071E080E090E00E948E080895FC01828188
:10127000823031F460E870E080E090E00E948E08F7
:101280000895FC018281823031F460E470E080E0F6
:1012900090E00E948E080895FC018281823031F432
:1012A00060E270E080E090E00E948E080895FC010A
:1012B0008281823031F460E170E080E090E00E9451
:1012C0008E080895FC018281823031F468E070E07C
:1012D00080E090E00E948E080895FC0182818230B7
:1012E00031F464E070E080E090E00E948E080895A0
:1012F000FC018281823031F462E070E080E090E0B5
:101300000E948E080895FC018281823031F461E0F0
:1013100070E080E090E00E948E080895CF93C82F7F
:10132000809105028C1751F00E945A0460930602C6
:10133000709307028093080290930902C0930502FC
:10134000CF910895B0E0A0E0E8EAF9E00C94472AD4
:101350008C01EB01E0910A02E11101C0E4E0E150EF
:10136000FF0B81E090E06C010E2E02C0CC0CDD1C66
:101370000A94E2F7D801ED90FC90C701B6010E94F3
:10138000BC2A9B01CB010E2E02C0880F991F0A9424
:10139000E2F7E81AF90AD8011196FC92EE92129639
:1013A000ED90FC90C701B6010E94BC2ACB0102C09F
:1013B000880F991FEA95E2F7E81AF90AF801F38213
:1013C000E2826138FFEF7F07F4F060387105ECF4DA
:1013D0006D8321388FEF3807D4F020383105CCF4F5
:1013E000822F81958C83442319F061956D832C8322
:1013F00080910B02882379F0813079F0CDB7DEB788
:10140000E8E00C94632A61E8E3CF6FE7E1CF21E8DD
:10141000E7CF2FE7E5CF1D82F1CF1C82EFCFFC0194
:10142000DB012281338191E821388FEF38072CF0DE
:10143000922F203831050CF09FE712969C9312975B
:101440002081318121388FEF3807A4F02038310511
:101450009CF413962C931397442339F0919512968C
:101460009C931297219513962C93118210821382CC
:101470001282089521E8EDCF2FE7EBCF9C01860F74
:10148000971F37FD07C077FD04C097FF02C08FEF9D
:101490009FE7089577FFFDCF97FDFBCF80E090E8B1
:1014A00008950F931F93CF93DF938B01EA019091DF
:1014B0000404943061F58093E9008FEF9091E80087
:1014C000815095FD06C095ED9A95F1F700008111C8
:1014D000F5CF8091E80085FF1AC00E940E038111AC
:1014E00011C08091E80085FD06C08091E8008E77EC
:1014F0008093E800F2CFF80181918F018093F10091
:10150000219779F78091E8008E778093E800DF914A
:10151000CF911F910F91089543E050E0BC0182E00C
:101520000E94510A089546E050E0BC0182E00E940A
:10153000510A0895CF93DF93EC0148E050E0BC01DD
:1015400081E00E94510A88E0FE01AAEFB3E0019019
:101550000D928A95E1F7DF91CF910895B0E0A0E078
:10156000E4EBFAE00C94452A7C015B016A0180916E
:10157000570301E010E08A3010F40AE010E0C1E007
:10158000D0E0B501C701F6010995811104C021968B
:101590000C171D072CF4CDB7DEB7EAE00C94612AD6
:1015A000CC9F9001CD9F300D300D112490E080E054
:1015B00045E34A95F1F70000019682179307C1F7BA
:1015C000E0CF8091FD02811119C088EC90E020915C
:1015D000E30027FD10C0EFE3FCE93197F1F700C00D
:1015E00000000197A1F782E08093FD020E94EF02C4
:1015F0001092040403C081E08093FD0281E0909189
:10160000FD02913011F080E0089508950E94E10AF2
:10161000882359F0E091ED03F091EE03309729F023
:101620000190F081E02D0995089580E008952598B6
:101630002D9A869A8E9885E08A95F1F7000083B1FD
:1016400086988E9A90EA9A95F1F790E025E0959524
:1016500087952A95E1F7809590958170089546E0E9
:1016600050E06EE973E08AEA93E00E94EA2A892B4F
:1016700021F08AEA93E00E94CA049091AB0386E0CD
:10168000EAEAF3E0DF01282F1D922A95E9F790930B
:10169000AB03AEE9B3E001900D928A95E1F70895AE
:1016A000A6E3B0E0E6E5FBE00C944D2A4091AA03E6
:1016B0005091AB036091AC037091AD038091AE0388
:1016C0009091AF030E94A70E2093AA033093AB031F
:1016D0004093AC035093AD036093AE037093AF039C
:1016E00086E0EAEAF3E0DE01599601900D928A95D0
:1016F000E1F786E0FE017996DE011D9601900D92DC
:101700008A95E1F786E0FE013D96DE015396019051
:101710000D928A95E1F786E0FE017396AAEAB3E09E
:1017200001900D928A95E1F786E0EAEAF3E0DE01A6
:101730009B9601900D928A95E1F786E0FE01BB969B
:10174000DE01179601900D928A95E1F786E0FE0181
:101750003796DE01119601900D928A95E1F786E0A9
:10176000FE013196DE015F9601900D928A95E1F7B8
:1017700086E0FE017F96DE01959601900D928A9596
:10178000E1F786E0FE01B596AAEAB3E001900D927A
:101790008A95E1F786E0E4EAF3E0DE01D196019074
:1017A0000D928A95E1F7EAEAF3E08AA99181892B03
:1017B00081830E942F0BE696E2E00C94692A8091C7
:1017C000F7039091E803892B809382029091F002B5
:1017D000992361F0892B80938202E4E8F2E097E09C
:1017E00080E0915071F581110E9411078091E10311
:1017F00080959091820289239091E203892B8093B6
:10180000820248E050E068EE72E082E892E00E94D6
:10181000EA2A892BA9F088E0E2E8F2E0A8EEB2E03B
:1018200001900D928A95E1F7E091ED03F091EE03BE
:10183000309731F00280F381E02D82E892E0099543
:1018400008952191222369F28F5FCBCFCF93DF934D
:10185000EC01EA85FB856C857D85309709F009955B
:101860008B810E9421078C810E9429070E94DF0B37
:1018700086E0FE0111928A95E9F7DF91CF910895F4
:10188000CF93DF93EC018D8181FD15C082608D8344
:101890008091E8039B81892B8093E8038C810E94CF
:1018A00031070E94DF0BE885F9856C857D853097CF
:1018B00011F0CE0109951092EA031092E9038D818F
:1018C00080FD03C0CE010E94260CDF91CF910895C8
:1018D00080911D02877F80931D028091D403811126
:1018E00003C082E00E94210780911D0284FF06C090
:1018F0008F7E80931D0282E00E94310780911D023D
:1019000085FF06C08F7D80931D0280E20E94310713
:101910000E94DF0B0895882321F00E9421070E9476
:10192000DF0B08958091D403882329F082E20E947E
:101930008B0C1092D4030895882339F09091E8031A
:10194000892B8093E8030E94DF0B0895882321F000
:101950000E9429070E94DF0B0895882321F00E942E
:1019600031070E94DF0B089590916F0392FB2227AD
:1019700020F9281779F080FB92F990936F0360911A
:101980006E0370916F0384E090E00E94A62A82E0CB
:101990000E9450080895B0E0A0E0E1EDFCE00C9456
:1019A000482A7901C82F880FDD0B41155105A9F090
:1019B000FE0193E0EE0FFF1F9A95E1F7EA5FFE4FFD
:1019C0008181928182509D4F208130E042175307E0
:1019D00008F49A01A9010E94F72ACE010E94C629A3
:1019E000D82E8823D1F001151105B9F083E0CC0F72
:1019F000DD1F8A95E1F7FE01EA5FFE4F438150E06B
:101A00000417150708F4A801CA5FDE4F6C817D81B9
:101A100062507D4FC7010E94F72A8D2DCDB7DEB7EA
:101A2000E7E00C94642AA5E0B0E0E9E1FDE00C9465
:101A3000452A8D83809157038A3028F080E02596CF
:101A4000EAE00C94612A8D818730C4F36801F22E9C
:101A50005A01E62E1A8219828A836B832C8363E0F3
:101A600070E0CE0102960E9449058983E09226012A
:101A7000F092390110E000E030E020E044E050E076
:101A8000BE016F5F7F4F83E00E94CB0C8823B1F2D1
:101A90004E2D50E030E020E0B50184E00E94CB0CF8
:101AA000882361F230E020E041E050E0BE016B5F4E
:101AB0007F4F85E00E94CB0C882309F4BFCF0F2D08
:101AC00010E0960150E040E070E060E086E00E94A7
:101AD000CB0CB5CFA4E0B0E0E0E7FDE00C944B2ADE
:101AE00040915303509154036091550370915603F4
:101AF0002FB7F8948091F2039091F303A091F4032F
:101B0000B091F5032FBF841B950BA60BB70B11E00B
:101B100084369105A105B10538F10E94E10A8823B8
:101B200041F10E945A046E5F7F4F8F4F9F4F698330
:101B30007A838B839C8310E000E030E020E044E077
:101B400050E0BE016F5F7F4F82E00E94CB0C182FE8
:101B5000882351F00E945A046093530370935403F6
:101B60008093550390935603812F2496E4E00C94C0
:101B7000672A0E945A04009158031091590320913A
:101B80005A0330915B03600F711F821F931FCBCFED
:101B9000A5E0B0E0EEECFDE00C94492A7B0101E009
:101BA00010E09E012B5F3F4F50E040E070E060E0AE
:101BB00080E00E94CB0C182F882309F456C0409176
:101BC0004F035091500360915103709152032FB70E
:101BD000F8948091F2039091F303A091F403B091F3
:101BE000F5032FBF841B950BA60BB70B843691050D
:101BF000A105B10548F464E070E08FEF92E00E9427
:101C000049059D81891789F104E010E09E012F5F4D
:101C10003F4F50E040E070E060E081E00E94CB0C7C
:101C2000082F64E070E08FEF92E00E94490511E018
:101C30009D81981310E0102331F10E945A046093A3
:101C40004F03709350038093510390935203898103
:101C50009A81AB81BC8180934B0390934C03A093FA
:101C60004D03B0934E0311E00EC08091FF0290919E
:101C70000003A0910103B091020389839A83AB838F
:101C8000BC831111E4CF80914B0390914C03A09140
:101C90004D03B0914E03F70180839183A283B383F8
:101CA000812F2596E6E00C94652A28E030E043E099
:101CB00060E086E30E94AD270895CF93DF93D82F8D
:101CC000C62F0E94550E8D2F80680E9426288C2FCB
:101CD0000E9426288AEB8A95F1F700C00E945628B8
:101CE00083E492E00197F1F700C00000DF91CF910B
:101CF0000895682F893708F068E76093030291E040
:101D0000909304029091F801992339F06150811168
:101D100001C064E08FE00E945D0E0895FB018081A8
:101D20000E94790E089590910302911101C095E0EF
:101D3000282F880F330BA901490F511DCA0118160E
:101D4000190614F081E090E00E94790E0895ACE04D
:101D5000B0E0EDEAFEE00C94472A4F83588769878C
:101D60007A878B879C878091F801882309F446C085
:101D700080918A02811107C060E080E50E945D0EBB
:101D800081E080938A020E94550E80E50E942628F9
:101D90008AEB8A95F1F700C00E943E280E943E28F7
:101DA0000E943E287C010E943E2820E0E22AF82A78
:101DB0000E943E288C010E943E2820E0022B182B16
:101DC0000E94562885E08A95F1F70000F894B70143
:101DD0008091FB019091FC010E943E0A9093FC01CE
:101DE0008093FB01B8018091FD019091FE010E945A
:101DF0003E0A9093FE018093FD0178940E94E10ACF
:101E0000882309F469C00E945A0400918B02109142
:101E10008C0220918D0230918E026B017C01C01AE0
:101E2000D10AE20AF30A970186010830110521055B
:101E3000310508F451C060938B0270938C0280933B
:101E40008D0290938E02009106021091070220915C
:101E5000080230910902601B710B820B930B6233F5
:101E600071058105910580F41092FC011092FB012F
:101E70001092FE011092FD01109200021092FF01DB
:101E80001092020210920102109105020E94170B9B
:101E9000482FBE01695F7F4F8BEF91E0112389F1DD
:101EA0000E94A209009105021091F8010E94170BEF
:101EB00041E04827BE01695F7F4F8FEF91E0011736
:101EC00019F10E94A20986E0FE013796A0E1B2E076
:101ED00001900D928A95E1F786E0FE013796DE01CA
:101EE000119601900D928A95E1F729813A814B81F3
:101EF0005C816D817E8180E090E02C96E8E00C941E
:101F0000632A0E940F0ACECF0E940F0ADCCFCF9324
:101F1000C82F0E94550E8C2F0E9426288FE792E032
:101F20000197F1F700C000000E943E28C82F95E0FD
:101F30009A95F1F700000E94562885E68A95F1F7F8
:101F4000000010928A028C2FCF910895CF93DF93D7
:101F50000E94A527269A0E94550E6AE58AE30E94F0
:101F60005D0E2FEF80E792E0215080409040E1F736
:101F700000C0000082E00E94870F83E00E94870F6C
:101F800084E00E94870F85E00E94870F86E00E9410
:101F9000870F60E080E10E945D0E80E00E94870F65
:101FA000D82F81E00E94870FC82F0E945628D23474
:101FB00019F481E0C13009F080E081708093F8016C
:101FC000882321F064E08FE00E945D0EDF91CF91C5
:101FD00008951F920F920FB60F9211242F933F93E3
:101FE0004F935F936F937F938F939F93AF93BF9321
:101FF000EF93FF938091E10082FF09C08091E2009E
:1020000082FF05C08091E1008B7F8093E100809189
:10201000DA0080FF24C08091D80080FF20C080912A
:10202000DA008E7F8093DA008091D90080FF9BC018
:1020300080E189BD82E189BD09B400FEFDCF81E068
:10204000809304048091F603811109C00E94EF027D
:102050000E948E038091E20084608093E200809170
:10206000E10080FF17C08091E20080FF13C08091E3
:10207000E2008E7F8093E2008091E2008061809395
:10208000E2008091D80080628093D80019BC85E07E
:10209000809304048091E10084FF29C08091E200D4
:1020A00084FF25C080E189BD82E189BD09B400FEBD
:1020B000FDCF8091D8008F7D8093D8008091E10082
:1020C0008F7E8093E1008091E2008F7E8093E2001A
:1020D0008091E20081608093E20080910504882372
:1020E00009F447C084E08093040480910404809143
:1020F000E10083FF27C08091E20083FF23C080912D
:10210000E100877F8093E10082E0809304041092D5
:1021100005048091E1008E7F8093E1008091E200D0
:102120008E7F8093E2008091E20080618093E200E4
:1021300042E060E080E00E945C038091F0008860F3
:102140008093F000FF91EF91BF91AF919F918F919C
:102150007F916F915F914F913F912F910F900FBEA3
:102160000F901F90189519BC109204041092F6035A
:1021700076CF8091E30087FD02C081E0B4CF83E099
:10218000B2CF78941F920F920FB60F9211248F93B3
:102190009F93AF93BF938091F2039091F303A0912B
:1021A000F403B091F5030196A11DB11D8093F203D4
:1021B0009093F303A093F403B093F503BF91AF9111
:1021C0009F918F910F900FBE0F901F9018952FB772
:1021D000F8948091F2039091F303A091F403B091ED
:1021E000F5032FBF08950E94E7102091A603211147
:1021F00004C02091A703222321F090939D03809394
:102200009C032091A803211104C02091A90322233B
:1022100021F090939B0380939A0384EA93E00E94B9
:10222000CA040895CF93C6E0E4E8F2E0DF018C2F02
:102230001D928A95E9F790E080E00E94A50490E065
:1022400080E00E9480041092E8030E94DF0BE4EA21
:10225000F3E0DF011D92CA95E9F7109297031092FF
:102260009803109299030E94F310CF910895109251
:10227000F7030E9412112FEF84E39CE0215080406D
:102280009040E1F700C0000087E797E790930108CE
:102290008093000888E19AE00FB6F894A89580939F
:1022A00060000FBE90936000FFCFFC0182818230FE
:1022B00011F40E9437110895AAE2B0E0E2E6F1E1DC
:1022C0000C944C2AE6E0F4E08091F100819324E044
:1022D000EE30F207C9F780910704833009F47DC01E
:1022E00008F5813009F454C0823009F4C0C08091EF
:1022F000E80083FFFAC080910604909107049A30A9
:1023000008F0F3C0E92FF0E0E857FE4E0C94D02A15
:1023100048126E1275126E127512C612E8127512FC
:10232000E613F3138A3009F491C08B3009F472C0BC
:102330008930E9F6809106048132C9F680910A0459
:1023400090910B04029798F68091E800877F809324
:10235000E8008091E80082FF3BC08091F3009091FB
:10236000F200892798278927029731F48091F1009C
:10237000813011F0863021F48091F1008093F903CF
:102380008091E8008B778093E8000E943D03AFCFF7
:1023900080910604813A09F0AACF8091E800877FF6
:1023A0008093E80080910A0490910B04892B61F0DE
:1023B00060E090E080E070E00E94E9038091E80036
:1023C0008B778093E80093CF68E08AEF93E0F3CFB8
:1023D000809104048111BDCF8ACF80910604813A97
:1023E00009F085CF80910A0490910B04892B09F0A4
:1023F0007ECF8091E800877F8093E8008091E8009D
:1024000080FFFCCF80911E028093F1008091E80054
:102410008E77B9CF80910604813209F068CF809120
:102420000A0490910B04892B09F061CF8091E80098
:10243000877F8093E8000E943D0380910804809389
:102440001E021092F7030E94121151CF80910604D0
:10245000813209F04CCF8091E800877F8093E800BB
:102460000E943D03809109048093F80340CF80913E
:102470000604813A09F03BCF8091E800877F809382
:10248000E8008091E80080FFFCCF8091F803BCCF8A
:10249000803889F0823849F580910A048F7087303E
:1024A00020F58093E9008091EB0085FB882780F977
:1024B0001092E90006C080910204909103049111EA
:1024C00082609091E800977F9093E8008093F100FC
:1024D0001092F1008091E8008E7727C0282F2D7F81
:1024E00021F48823A1F0823029F18091E80083FF54
:1024F0000AC08091E800877F8093E8008091EB001C
:1025000080628093EB00AA96E3E00C94682A8091A5
:102510000804813051F7933009F080E08093030480
:102520001092E9008091E800877F8093E8000E9484
:102530003D03DBCF809108048111F2CF80910A0422
:102540008F702FEF280F263080F68093E9002091BE
:10255000EB0020FFE5CF933031F48091EB008062F7
:102560008093EB00DDCF9091EB0090619093EB00B6
:1025700021E030E001C0220F8A95EAF72093EA00BB
:102580001092EA008091EB008860EACF8111ADCF14
:10259000109108041F778091E3008078812B80934D
:1025A000E3008091E800877F8093E8000E943D036C
:1025B0008091E80080FFFCCF8091E30080688093E9
:1025C000E30083E0111101C082E0809304048DCF09
:1025D0008058823008F089CF8091080490910904D6
:1025E0008C3D23E09207A1F583E08A838AE2898308
:1025F0004FB7F894DE01139620E03EE051E2E32F5E
:10260000F0E050935700E49120FF03C0E295EF7093
:102610003F5FEF708E2F90E0EA30C0F0C7968D9349
:102620009D932F5F243159F74FBF8091E800877F3A
:102630008093E8006AE270E0CE0101960E94E9030F
:102640008091E8008B778093E8004FCFC096E7CF6A
:1026500040910A0450910B04292F33272330310570
:1026600009F443C078F52130310509F46DC08BE3DE
:1026700090E0E7E2F5E02230310509F036CF209115
:10268000E800277F2093E80020910C0430910D048E
:102690008217930708F49C0140E02115310509F0E9
:1026A00062C0411160C08091E80082FDC9CF809175
:1026B0000404882329F2853019F28091E80083FF11
:1026C000F2CFBECF2132310599F12232310509F026
:1026D0000CCF4115510509F441C08BE790E0ECE6C1
:1026E000F4E04130510559F200CF9927813091052E
:1026F000B9F058F0029709F0F8CEE4E7F5E0E4917C
:102700008E2F90E0E4E7F5E007C0ECE9F5E0E49116
:102710008E2F90E0ECE9F5E0009709F4E6CEAFCF1C
:10272000EAE8F5E0E4918E2F90E0EAE8F5E0F4CFF6
:102730004115510571F089E090E0E2E5F5E04130A6
:10274000510509F49CCFD1CE82E190E0E2E6F5E0BC
:1027500096CF89E090E0E9E3F5E091CF80E490E066
:10276000E7EEF4E08CCF80910404882309F468CF6D
:10277000853009F465CF8091E80083FD61CF8091B9
:10278000E80082FD90CF8091E80080FF86CF8091A5
:10279000F3009091F20089279827892721153105A8
:1027A00019F08830910550F041E0089709F040E0B9
:1027B0008091E8008E778093E8006FCF449140933A
:1027C000F1003196215031090196E8CF803809F0A7
:1027D0008CCE8091E800877F8093E800809105048B
:1027E0008093F10077CE811180CE109108041230D1
:1027F00008F07BCE8091E800877F8093E8001093FB
:1028000005040E943D03112381F084E080930404B9
:1028100042E061EC81E00E945C0342E261EC82E014
:102820000E945C038091040460CE8091E30087FDE8
:10283000ECCF81E0EBCF1F920F920FB60F921124D5
:102840002F933F934F935F936F937F938F939F93B8
:10285000AF93BF93CF93EF93FF93C091E900CF70F5
:102860008091EC001092E9008091F000877F8093C6
:10287000F00078940E945C111092E9008091F000C1
:1028800088608093F000C093E900FF91EF91CF91B1
:10289000BF91AF919F918F917F916F915F914F9178
:1028A0003F912F910F900FBE0F901F90189510928F
:1028B000F7030E9412112FEF84E39CE02150804027
:1028C0009040E1F700C0000088E19AE00FB6F8946C
:1028D000A895809360000FBE90936000FFCF6623A1
:1028E00009F46CC08D3C41F40E9481058195809370
:1028F000A7030E94F31008958E3C19F40E948105ED
:10290000F6CF8F3C31F40E94810581958093A60318
:10291000F0CF803D19F40E948105F8CF893D29F45C
:102920000E945F058093A803E4CF8A3D21F40E94B2
:102930005F058195F7CF8B3D31F40E945F0581954E
:102940008093A903D6CF8C3D19F40E945F05F8CF80
:102950002FE2280F2830E8F4815D990B41E050E028
:1029600001C0440F8A95EAF78091A503842B8093D8
:10297000A50381E090E0AC0102C0440F551F2A95E9
:10298000E2F78091AB03842B8093AB030E942F0B63
:1029900008958D3D31F4809199038160809399036E
:1029A000A8CF8E3D21F4809199038260F7CF8F3DAF
:1029B00009F08CC0809199038460F0CF4FE2480FFA
:1029C0008D3C41F59091A70397FF2AC01092A70371
:1029D0008091A603811106C08091A703811102C0D6
:1029E000109297038091A803811106C08091A903DA
:1029F000811102C010929803483008F07ACF81E02C
:102A000090E001C0880F4A95EAF780959091AB035A
:102A10008923BACF8E3CC9F49091A7031916B4F25A
:102A2000483008F03EC0815D990B21E030E0B901EB
:102A300002C0660F771F8A95E2F7CB0180959091CF
:102A4000A50389238093A503C3CF9091A6038F3C50
:102A500029F497FFE5CF1092A603BACF803D19F471
:102A60001916CCF3DDCF9091A803893D29F41916EE
:102A7000BCF61092A803ACCF8A3D19F497FFD0CFD3
:102A8000F8CF8B3D39F49091A90397FFC9CF1092ED
:102A9000A9039ECF8C3D21F69091A9031916BCF392
:102AA000BFCF8D3D31F4809199038E7F8093990340
:102AB0008FCF8E3D21F4809199038D7FF7CF8F3D8D
:102AC00009F086CF809199038B7FF0CF283008F4EE
:102AD00050CF0FCF882381F19CEF980F913A28F4C3
:102AE0000E9437070E94DF0B089590E2980F9830FC
:102AF00050F4877091E001C0990F8A95EAF7892F09
:102B00000E942907EFCF9BE5980F933028F490E0BF
:102B100080E00E94A504089598E5980F9B3128F461
:102B200090E080E00E948004089593E3980F933131
:102B300018F460E00E946F140895FF920F931F93A2
:102B4000CF93DF930091E6031091E7030115110580
:102B500009F451C01092E5031092E4031092E103CE
:102B60001092E203D8011996CD91DC91AE015A95ED
:102B700041155F4108F4D07ED1E0C11101C0D0E021
:102B8000F82ED8011C96ED91FC911D97309731F0ED
:102B90001E966D917C9180E00995D823DD2339F054
:102BA0008CEF8C0F813A68F58C2F0E943707E091EB
:102BB000E603F091E70340815181FF2071F08385A6
:102BC00084FD0BC08091E303882339F091E09A01E2
:102BD000215031092F333E4708F090E090FF03C0A9
:102BE000CA010E94D8040E94DF0B1092E7031092E2
:102BF000E6031092E303C801CDB7DEB7E5E00C941D
:102C0000662A0E94DF0B8C2F0E946A15D0CFCF93CB
:102C1000DF93EC010E946A15CE010E94EF089E012D
:102C2000205E31092830310510F0CD2B29F40E94A7
:102C3000A60CDF91CF9108950E948B0CFACFCF9311
:102C40008823A9F0C82F8CEF8C0F813A90F4E4E828
:102C5000F2E08191C817E9F182E0EA38F807C9F794
:102C60006C2F82E892E00E9466040E94DF0BCF91F5
:102C7000089580E28C0F883048F4C77081E001C06D
:102C8000880FCA95EAF70E943107EFCFEBE5EC0F0A
:102C9000E33040F4F0E0EE5CFD4F808190E00E9474
:102CA000A504E5CFE8E5EC0FEB3150F4F0E0EE0FD2
:102CB000FF1FEB5CFD4F808191810E948004D7CF84
:102CC00083E38C0F833198F661E08C2F0E946F14A0
:102CD000CECF8C2F0E9437070E94DF0BC1CFCF933E
:102CE000DF93EC010E94EF089E01205E310928303D
:102CF000310510F0209741F40E94AD0C8C2F0E94FA
:102D00001F16DF91CF9108950E949C0CF7CFB0E081
:102D1000A0E0EDE8F6E10C94482AEC018B018091EB
:102D20001D0282FF81C0E090D203F090D303EC1625
:102D3000FD0619F0209709F077C080911D028B7F66
:102D400080931D0281FD69C08091D0039091D103D1
:102D50009801281B390B81E0283C310508F480E0FC
:102D60008170D82E80911D02D0FA81F980931D02C6
:102D7000E701DD27FE0184E0F695E7958A95E1F706
:102D8000EE0FFF1FE055FC4F20813181A7014F70EE
:102D9000552781E090E002C0880F991F4A95E2F71D
:102DA000DD20E9F1822B932B918380838091F703BF
:102DB00081FF08C080911D02806180931D0282E026
:102DC0000E9429078091F70385FF08C080911D02AA
:102DD000806280931D0280E20E942907DD2029F095
:102DE0008091E80382608093E803C70190528115C7
:102DF000904308F0E701CE010E946F168091D20344
:102E00009091D3039C0130522115304308F4992747
:102E10000E9407160E94680C17C081E0A1CF809520
:102E2000909582239323C0CFCE0190528115904379
:102E3000A0F4CE0199270E9407168091D2039091A9
:102E4000D303C817D90731F31093D1030093D003EC
:102E5000CDB7DEB7E7E00C94642ACE01ECCFACE04E
:102E6000B0E0E5E3F7E10C94422A8E010F5F1F4FBB
:102E700088E0D8011D928A95E9F78DE6E82E82E078
:102E8000F82E6801AA24A394B12C27E7822E22E011
:102E9000922EF70181917F018F3F09F440C0F89491
:102EA000E82FE295EF70F0E021A18F70A50102C03C
:102EB000440F551F8A95E2F7CA01922F982B91A3D0
:102EC00092A18095892382A3789400C0E1E7F2E083
:102ED000712C31E021912F3F09F493C0A22FA295CC
:102EE000AF70B0E090968C9190E02F7002C09595F5
:102EF00087952A95E2F780FD84C0832F782A330FC7
:102F00008E169F0639F7F701319780818F3F11F0B8
:102F10000E94F10550EA5A95F1F7D6017C92BFEF75
:102F2000CB1ADB0AE1E7EE16E2E0FE0609F0B1CFCC
:102F300048E050E0B8018CE593E00E94EA2A00974F
:102F400041F028E0F801ACE5B3E001900D922A953C
:102F5000E1F700916503892B49F081E08093F50248
:102F60000E94E7109093F4028093F302F090F50230
:102F7000F11049C0F12C0E94E10AE82EE0916503AE
:102F8000882309F49AC019861A861B861C860E2F80
:102F900010E000591C4F809157038A3008F055C04B
:102FA00048EC5DE0BE01675F7F4FC8010E94AE0A3A
:102FB000882309F46FC04AE65DE0BE01675F7F4F7A
:102FC000C8010E94AE0A882309F464C01092570316
:102FD0008091640390E044E050E0BE01675F7F4F62
:102FE00080599C4F0E94EA2A21E02093FC02892B01
:102FF00009F042C0E12C8E2D8F292C96EDE00C9427
:103000005E2A80E07BCF8091F3029091F4020E94CF
:103010004B04059708F4AECF10E000591C4F44E074
:1030200050E06CE573E0C8010E94EA2A892B59F050
:1030300084E0ECE5F3E0D80101900D928A95E1F788
:103040001092F50298CFF12CFBCF8091F60290916F
:10305000F7020E944B04843F914008F0A1CF809179
:10306000FC02882339F2FE01399684E0DF011D92CB
:103070008A95E9F71092FC02E0916403F0E0E059D0
:10308000FC4F89859A85AB85BC8580839183A2831B
:10309000B383B1CF809157038F3F19F08F5F809337
:1030A0005703809157038A3008F492CF0E94E710AB
:1030B0009093F7028093F602D2CFF0E0E059FC4FF4
:1030C00084E0AFEFB2E001900D928A95E1F764E001
:1030D00070E08FEF92E00E9449058093FE0280909D
:1030E000030390900403A0900503B0900603809121
:1030F000F8029091F902A091FA02B091FB028816B1
:103100009906AA06BB0609F476CF8092F80290923F
:10311000F902A092FA02B092FB020E94E10A811128
:103120006ACF0E945A04861A970AA80AB90A80929E
:10313000580390925903A0925A03B0925B035BCF5D
:10314000A7E0B0E0E6EAF8E10C943D2AFC018081BA
:10315000918123813481232B39F09F3F19F491E031
:103160008F3F19F090E001C091E0292F2170298351
:1031700090FDB2C08F0121E0408151816281738155
:1031800084810E94CC089F838E83D80112968C91F3
:10319000882391F18091E9039091EA03009761F10E
:1031A000EE81FF818E179F0739F1FEE08F9FC001EE
:1031B0001124FC01ED59FE4F208124602083825AA6
:1031C0009E4FEE81FF81DC01ED93FC930E94400C49
:1031D0001092E80321E0D8014C9111965C9111976F
:1031E00012966C91129713967C91139714968C916A
:1031F0000E94CC089F838E83EE81FF81F0930D02A5
:10320000E0930C02D8018D919C9190930F028093D2
:103210000E02CF019A95FF2781159F4158F1EE814B
:10322000FF81E730FE4721F5D80112968C910E946C
:103230008E09F8019280992009F49BC02E813F816C
:103240002E354CE7340709F490C02F355CE735077D
:1032500049F02D353C4709F08CC08091040188234A
:1032600009F483C01092040180E00E949D1524C0DF
:10327000EE81FF81D80112968C918823D1F2FE57FE
:10328000E031F105B0F6E95BF64E0C94D02A5719FF
:103290007019851989198B198D198F191919961992
:1032A000A519191919191919B019AC19B31980E010
:1032B0000E94790E10920A028091E702877061F0F5
:1032C000D80112968C91882339F080916F0382FF88
:1032D00003C082E00E9450082796E2E10C94592A2C
:1032E0004091030250910A0250FB47F956955370E2
:1032F00080910B028370880F880F582B60E070E07C
:103300008FE090E00E949A2AD7CF81E00E94930E2E
:10331000D3CF8FEFFBCF8AE0F9CF86EFF7CF909135
:10332000050281E089270E948E09C6CF80910A029A
:10333000811101C084E08F5F18160CF081E08830A5
:1033400008F087E080930A02B7CF80910A028111CA
:1033500001C084E08150F0CF81E080930B02ACCFBC
:1033600010920B02A9CF82E0F8CF81E08093040194
:10337000A3CF80910401882309F48BC5AE80BF8060
:1033800090EEA91AB1088090F0028091F703882A84
:10339000A8E0AA16B10408F0EAC02E813F81277088
:1033A000332781E090E001C0880F2A95EAF7992041
:1033B00009F4DAC0882AD8018D919C910E94B60741
:1033C00021E030E0290102C0440C551C8A95E2F747
:1033D000052C000C66087708E091E603F091E703FE
:1033E000FB83EA8320918F02309190023D832C83EE
:1033F000212CE22DF0E0EE0FFF1FE050FF4FE080A8
:10340000F180E114F10409F416C5811005C0D7015B
:1034100012968C918111ECC0F70183819481A58172
:10342000B68184219521A621B721892B8A2B8B2B4C
:1034300009F4DEC08385982F977009F487E0F8E0DF
:10344000AF16B10408F0AFC0992009F4A8C0869562
:103450008170882309F4CCC0D701CD90DC90EE8137
:10346000FF81EC15FD0519F4992009F4C1C02A81EA
:103470003B81E216F30609F4BBC0D7015096ED91EB
:10348000FC91309721F08081882309F4B1C0682D28
:10349000C7010E942905882309F4AAC0EE81FF8193
:1034A000EC15FD0509F022C6EF2B09F480C0911040
:1034B0007EC0312C81E02C813D81C216D30609F0FB
:1034C00080E080FF95C080E00E949D15F092E703A8
:1034D000E092E60381E08093E303D70118968C9194
:1034E00018978093E10331100DC0CD2859F08D91CC
:1034F0009C919C0124503109213A310508F05AC0B1
:103500000E943707F701C184D284C6019A958115BC
:103510009F4110F420EED22299249394C601019782
:103520008F339E4708F0912CD7011C96ED91FC91AA
:103530001D97309731F01E966D917C9181E0099531
:103540009822992071F0F701818592850E94EF08F9
:103550008093E203C601F8E0AF16B10470F50E9453
:10356000D8040E94DF0B32C08095882224CF992096
:1035700009F448C4EE81FF81F0939002E0938F023A
:103580000E945A046093DD037093DE038093DF038F
:103590009093E0031092E5031092E4030CCF82FBBA
:1035A000882780F956CF992019F1817052CF392C94
:1035B00081E087CF0E946A15A5CF0497813A9105D3
:1035C00058F46C2D82E892E00E946604332009F4DE
:1035D00060C40E94DF0B70CE0E94DF0B8FE39CE97A
:1035E0000197F1F700C000008C2D0E941F16EECF4E
:1035F0002394FFCEFC01208131814E815F814217EF
:10360000530709F03FC491103FC41092E30380E0D8
:103610000E949D153EC490E080E088C4FA01858137
:1036200081FF88C4CA010E94260C84C41092F7034B
:103630000E9411070E94E71088579C4E90938A03BE
:103640008093890381E08093D40336CEAE81BF811D
:10365000A115B04508F44BC0EE80FF802FC02E812D
:103660003F81243B42E5340709F496C438F4C9018C
:10367000805692458034910578F78EC48E819F8163
:10368000805C9245809740F787C48581807FA1F553
:103690008F818F718231A1F140F4E1EEEE2EF12C99
:1036A000823061F00E94920C77C4843109F474C4B2
:1036B00076EEE72E72E1F72E8631A1F780911D029A
:1036C00080FF22C08DEF0E942107F8E2EF16F1047F
:1036D000E8F42EE1E216F10410F534E0E316F1040B
:1036E00008F38091E80382608093E80318C0F80132
:1036F0008581807F09F450C4EE80FF80FF24DECFF7
:1037000065EEE62EF12CDACF8FEFDDCF4DE2E41639
:10371000F10439F338F48AE2E816F10419F60E944C
:10372000DF0B3AC49CE4E916F104C9F3ADE2EA16F2
:10373000A2E0FA06A1F3B6CF90911D02892F8E7FE9
:1037400090FF816080931D020E94680C4CC48091A0
:103750001D028E7FF7CFEE81FF8180911D028F7E4B
:10376000E13EF10549F02E813F81253E310509F00A
:1037700055C080911D028F7D80931D0280911D0296
:1037800080FF3CC4D80112968C91EE81FF81EB3210
:10379000F10549F008F04AC09F012E5131092A3045
:1037A000310508F050C0882309F477C08091F002F9
:1037B0009091F703982B292F2D7F09F447C0109281
:1037C000D3031092D203EE81FF8144E0F695E79592
:1037D0004A95E1F7EE0FFF1FE055FC4F2E813F8128
:1037E0002F70332781E090E002C0880F991F2A953F
:1037F000E2F78095909520813181822393239183F4
:1038000080838E819F810E946F168091F0028D7F50
:103810000E94170782E00E9450084ECD8E819F8142
:1038200090528115904308F0A9CFE8C32E813F81C3
:103830002D32310540F02933310508F4B4CF243658
:10384000310509F4B0CF8111D5C3D8C326E0F80102
:10385000A3E8B3E001900D922A95E1F71092850359
:10386000109287031092860320911D0291FB21F98B
:1038700020931D028D7F0E9417074E815F81509318
:10388000D3034093D203F092D103E092D00380910E
:103890001D02846080931D02BDCFA801B7018E81F7
:1038A0009F810E94871608CD8E819F818B35ACE762
:1038B0009A07F1F08C35BCE79B0781F08A359C476D
:1038C00009F0B3C381E011C00E9437116FEF7FEFA1
:1038D00090E080E00E94A62A0E94571480916F0316
:1038E00082FB882780F991E089270E94B40C9DC350
:1038F00080E0FBCF8A819B810E94B607F82EA7C388
:10390000FA81FF70EF2E2A81207F19F0E29490EF68
:10391000E9228C81FF20A9F0EE2059F0982F905ECB
:10392000983010F0811107C08E2D0E9431070E943F
:10393000DF0B8C8140C08091E803E82AE092E80325
:10394000F6CF8C810E946A15EE20B9F13C81305E81
:103950008E2D383010F0C11003C00E94290702C01C
:103960000E9421070E94DF0B28C04A814F70E42E7D
:103970005A81507F503219F0E29480EFE8228C8116
:10398000CC2059F091E0C91609F463C0FF2009F476
:103990006DC0DD2009F463C0CCCF80916F0382FD40
:1039A00036C0FF2069F1EE2029F08E2D0E943107EC
:1039B0000E94DF0B80E00E941F1689818823B1F0EE
:1039C0008091E70280FD12C0D80112961C92859565
:1039D000859585950E946C08C8010E94A018809169
:1039E000E7028595859585950E942C0820E0F801D1
:1039F000408151816281738184810E94CC086CCCAA
:103A000080E00E946A15EE20C1F28E2DA6CFFF2025
:103A100071F08091F0028E29D11003C00E94AD0C8C
:103A2000CCCFA1E0DA12FACF0E941707C6CFD1108F
:103A300006C00E9411078E2D0E94A60CBECFB1E0D9
:103A4000DB1609F4BACF8E2D0E94A60C0E94110736
:103A5000B4CFFF2031F0E5E0ED1508F4AECF8E2DA8
:103A6000DDCFF4E0FD1508F4A8CFE5CFDD2019F394
:103A7000893349F42FEF37EE43E021503040404086
:103A8000E1F700C000008C810E946A1596CF8A8100
:103A900086958695837041F0813081F088EF8E0D98
:103AA000843008F08ACF63C08C819A819370F110C2
:103AB00002C080E090E00E94A5047FCF8C819A81B3
:103AC0009370F11002C080E090E00E94800475CFF6
:103AD0006F2D8C810E946F1470CF8A81837009F0E2
:103AE0006BC0F11044C08C81829586958770880FD9
:103AF000880F6C816F70C62ED12CF12CE12C082E12
:103B000004C0CC0CDD1CEE1CFF1C0A94D2F75C81B7
:103B100054FF30C04FE050E060E070E004C0440F5C
:103B2000551F661F771F8A95D2F74095509560956F
:103B300070958A818695869583708A83823049F153
:103B400008F58090660390906703A0906803B0909A
:103B50006903813099F04C295D296E297F29CB01B9
:103B6000BA01682179218A219B210E948E080E9436
:103B7000060B23CF40E050E0BA01DBCFC828D9289C
:103B8000EA28FB28CB01BA016C297D298E299F29BF
:103B9000ECCF4C295D296E297F29C0906603D09017
:103BA0006703E0906803F0906903CB01BA016C25CC
:103BB0007D258E259F25D9CF8695FF2011F08A81FE
:103BC00081708823A1F28C81829586958770880FF9
:103BD000880F6C816F70C62ED12CF12CE12C082E31
:103BE00004C0CC0CDD1CEE1CFF1C0A94D2F79C8197
:103BF00040E050E0BA0194FF0FC04FE050E060E0B9
:103C000070E004C0440F551F661F771F8A95D2F7D6
:103C10004095509560957095AA81A695A695A3703C
:103C2000AA83A23019F1D8F480906A0390906B03B4
:103C3000A0906C03B0906D03A13069F04C295D2910
:103C40006E297F29CB01BA01682179218A219B2124
:103C50000E9423088CCFC828D928EA28FB28CB014A
:103C6000BA016C297D298E299F29F2CF4C295D2923
:103C70006E297F29C0906A03D0906B03E0906C039B
:103C8000F0906D03CB01BA016C257D258E259F2513
:103C9000DFCFBA81BF70BA83FF2039F08B2F0E942B
:103CA0006C088C810E94AD0C62CF8C810E94A60CA6
:103CB0008A810E942C085BCF8C81E2EFCE1609F43A
:103CC0004CC0EC1580F0F0EFCF16F1F021EFC216EA
:103CD000A1F0FF2009F482C0DD2009F47CC08C81B2
:103CE0000E941F16DBCE33EFC316F1F144EFC4126E
:103CF000F0CF80916F0382FD4BC08A818F71FF20CE
:103D000081F10E946C08CACEFF2011F154E05D15CC
:103D100008F4C4CE8A818F718A8361E070E080E00C
:103D200090E00A8004C0660F771F881F991F0A94CD
:103D3000D2F780906A0390906B03A0906C03B090D0
:103D40006D03682579258A259B250E942308A6CE28
:103D500095E09D1508F4A2CEDDCF8A818F71FF20FA
:103D600081F20E942C089ACE60E070E0CB01FF2027
:103D700061F3AA81AF71AA8361E070E080E090E016
:103D800004C0660F771F881F991FAA95D2F7DDCF51
:103D9000FF20B1F0BA81BF71BA838B2F0E946C08EB
:103DA00080916F0382FF0AC0FA81E8E0FE9FC001A4
:103DB000112483608093E7028F2FA3CF8A81A1CF44
:103DC00081E00E94500821E02D1508F067CE82E0C6
:103DD0000E94500863CE8A818F7193CFDD2079F0E5
:103DE000893349F43FEF47EE53E0315040405040B3
:103DF000E1F700C000008C810E946A154FCE8A81D5
:103E00008F71AFCF80918F02909190022E813F8170
:103E10002817390781F41092900210928F021092A5
:103E2000DD031092DE031092DF031092E003109284
:103E3000E5031092E4038091E6039091E703009775
:103E400041F1A8E0AA16B10408F0D4CB682D0E9475
:103E5000290581111EC081E00E949D152E813F81A0
:103E600023373C4709F066C0D80112968C9188230D
:103E700009F422CA8091D403882309F4D7CB0E9485
:103E8000920C1ACA992029F0DC011B968C9185FFAF
:103E9000BECB8E819F8197558F3F910509F0F0F63B
:103EA000CE80DF80DD242E81BEE02B9FF001112427
:103EB000AF01425A5E4F7A01D80112969C91129737
:103EC000ED59FE4F808190FB80F9808312968C9192
:103ED000882309F4A3CB0E94E71090938203809378
:103EE0008103F70182818F5F82838091E803909143
:103EF000F703892B83838091F00284830680F78106
:103F0000E02DD7011C966D917C91309711F0C7017F
:103F100009958EE08C9DF0018D9DF00D1124E25AE3
:103F2000FE4F858181FD77CB9E818F819093E90340
:103F30008093EA038091D403882371F1E090F70322
:103F4000F090F0020E94E71088579C4E90938A03ED
:103F500080938903F80182818823F1F08F2D8E29C7
:103F60008D7909F09FCB2E813F81203442E53407C3
:103F700008F075CB211552E5350770F4211580E462
:103F8000380708F063CB211590E2390708F07DCBA4
:103F9000263E310509F060CB0E94E7107C01F80154
:103FA0008281882309F4D7CB80911D0282FF07C04C
:103FB00043E853E0B70190E080E00E9487162E812D
:103FC0003F8124314CE7340709F4C1CB25315CE74C
:103FD000350709F4B1CB23313C4729F480911D0208
:103FE000816080931D028E819F8190528115904344
:103FF00008F0C4CB1092D3031092D203D8011296CA
:104000008C91882391F0EE81FF81E3302CE7F20759
:1040100009F45CCC08F048CCE1154CE7F40709F44E
:1040200053CCE130FC4709F457CCF8018281208160
:1040300031813B832A83882309F45CCCC9010E9427
:104040006D07F82E682F8A819B810E94EB076A8199
:104050007B818F2D0E9408060E9426068C839A83FE
:10406000C82ED8011296FC9012971596DC90D29427
:104070003FE0D3228091E7028770F1F0FF20D9F072
:10408000892F807F803451F08C2D805E8830A0F0A5
:10409000D11004C0892F807E803271F080916F032F
:1040A00082FF0AC082E00E9450088091E702877078
:1040B000B1E0B98381111982EA80E2942FE0E22213
:1040C000EBE0EE1508F479CCEE2DF0E0E659FF4D6B
:1040D0000C94D02A801C801CB51CB51C471D681D83
:1040E000DD1CDD1C6D1D491E5C1E5C1E312CC114C7
:1040F000D10409F45DCADDC90F931F93CF93DF93F9
:104100008091B402807F09F051C08091B102882370
:1041100009F44CC08091E6021091B5026091AF02A3
:104120007091B002C091B202D091B30221E06F3F12
:1041300009F020E006E01817C9F131E0209721F0DE
:10414000322F7F3F09F030E090E030FD34C0089F0F
:10415000F001099FF00D1124DF01AA54BD4F119603
:104160003C911197371327C03C91361324C0129607
:104170003C91129731111FC013964D915C914C1BCD
:104180005D0B483C5105B8F48091B4028F7080619A
:104190008093B402E554FD4F80818F7080618083ED
:1041A0008FEA92E00E94A0180E946307DF91CF91EE
:1041B0001F910F91089501968770BDCFA1E1B0E0E6
:1041C000E4EEF0E20C94432A8C0185E0F801DE0174
:1041D0001D9601900D928A95E1F7F801E280909189
:1041E000AF022091B0024091B2025091B30281E03F
:1041F0004115510531F02F3F19F481E09F3F09F03F
:1042000080E080FD26C1F801D080C180A380B48009
:104210008FEA882E82E0982EF090B102B501641BDF
:10422000750BFF2009F4FCC08091B402382F307F59
:10423000683C710508F0C0C0311181C0FE2C2C1102
:1042400014C09D1112C0E11010C08F708061809366
:10425000B402C4010E94A0188091B402F8018583C1
:104260008F2D6196ECE00C945F2A81E0A114B104DB
:1042700031F0FFEFCF1202C081E0DF1280E080FD5D
:104280003AC081E08E2580FF05C04E2D6C2D8D2D0E
:104290000E94430781E0A114B10431F02FEFC21254
:1042A00002C081E0D21280E080FD27C081E08E252F
:1042B000682F6170B62E80FF38C04E2D6C2D8D2D6D
:1042C0000E944307A82E811130C0DD86CE868D85E1
:1042D0009E850E94A907292F22952F70243078F4FB
:1042E0009F702230A0F09923B1F0F8019581907F62
:1042F00091F4FA2CB5CF80E0C6CF80E0D9CF2A5018
:10430000223068F0C8010E94A018AB2CF2CF99238C
:1043100011F0882371F3805E8830A0F7EACF803FE8
:1043200040F3815F833070F7E4CFEE2009F498CF3B
:104330008091B40281608093B402F12C91CF2C1152
:1043400011C09D110FC0E1100DC08583C8010E94EE
:10435000A01886E0F801AFEAB2E001900D928A95CC
:10436000E1F77ECFC8010E949708882309F1EE206B
:10437000F9F08091B402803270F02091AF02309158
:10438000B00238872F831986BB86AA868C87CE0118
:1043900007960E94A01886E0F801AFEAB2E001900B
:1043A0000D928A95E1F70E947C20FF24F39458CF68
:1043B000C8010E94A018F9CF31110AC08FEA92E01B
:1043C0000E94A01886E0F40111928A95E9F7B5CF12
:1043D0002C110EC09D110CC0E1100AC08583C801CC
:1043E0000E94A01886E0F40111928A95E9F738CF6F
:1043F000C8010E9497088823D9F2EE20C9F2809163
:10440000B402803240F22091AF023091B0023A8380
:1044100029831B82BD82AC828E83CE010196B9CFE7
:10442000683C7105F8F6FE2CEE2011F22C1103C049
:104430009D1509F48ECFC8010E9497088111ABCF5A
:104440008091B40281608093B402C8010E94A018D8
:1044500007CFEE2009F4ACCFC8010E949708F82ED0
:10446000882309F4A5CF86E0F801AFEAB2E0019015
:104470000D928A95E1F78091AF029091B0020E946F
:10448000A9070E947C20ECCEA7E1B0E0EAE4F2E2CA
:104490000C944C2A4B8B5C8B6D8B7E8B8F8B6111BC
:1044A0001092E8031A8A198A85E0FE017396DE01EC
:1044B0001D9601900D928A95E1F786E0FE013D96EA
:1044C000DE01179601900D928A95E1F7CE010796CD
:1044D0000E94DE20811137C086E0FE013796DE01A2
:1044E000119601900D928A95E1F79F8188852A8522
:1044F0003B85232B39F08F3F19F481E09F3F19F062
:1045000080E001C081E080FD1EC02091B50230E056
:10451000C9010196877099274091E602481719064C
:1045200059F196E0929FD001939FB00D1124AA54A7
:10453000BD4FFE01319601900D929A95E1F780935F
:10454000B5020E94630716E08091E6029091B502E1
:10455000891709F1819FC00111248A549D4F0E943F
:10456000DE208823C1F08091E60290E001968770FA
:1045700099278093E602E8CF1092F7030E94121168
:104580001092B5021092E60286E0EFEAF2E0DF0157
:104590001D928A95E9F76796E3E00C94682AA5E0F6
:1045A000B0E0E5EDF2E20C944B2A0E94E7108C019A
:1045B0008091F1029091F20280179107A1F08FEFA4
:1045C00089838A831B820E94E7108160782F9D83F4
:1045D0008C8349815A816B818D810E944422109382
:1045E000F2020093F1022596E4E00C94672A1F92F0
:1045F0000F920FB60F9211248F939F93AF93BF9397
:104600008091F103811113C08091F2039091F30323
:10461000A091F403B091F5034196A11DB11D8093C3
:10462000F2039093F303A093F403B093F503BF91C7
:10463000AF919F918F910F900FBE0F901F90189583
:10464000ABE0B0E0E6E2F3E20C943D2A85B7806887
:1046500085BF85B7806885BF84B7877F84BF0FB665
:10466000F894A89580916000886180936000109212
:1046700060000FBE80E890E00FB6F8948093610070
:10468000909361000FBE80EC95E09093810280933F
:1046900080020E94EF020E948E038091E2008460FB
:1046A0008093E200789480910404882399F010911B
:1046B000E9001F708091EC0080FDA1C180E0182B03
:1046C0001092E9008091E80083FD0E945C111F7048
:1046D0001093E90082E084BD93E095BD9AEF97BD09
:1046E00080936E00109258031092590310925A034F
:1046F00010925B030E94170B809305010E94E10A50
:1047000081110E94DA28809105018091050194E0D1
:10471000811190E09093650384E0891B809364038A
:1047200084EF0E94F10585EF0E94F10586EF0E945B
:10473000F10587EF0E94F10501E712E0D8018D91A4
:104740008D018F3F11F00E94F105B2E007371B0782
:10475000A9F788E0E0E7F3E0DF01C82E1D92CA94D4
:10476000E9F7ECE5F3E0DF011D928A95E9F790E0C7
:1047700080E00E94822A873E9E4F09F462C067EE65
:104780007EEF90E080E00E94A62A60E082E090E068
:104790000E94882A60E083E090E00E94882A1092BC
:1047A000660310926703109268031092690360E039
:1047B00074E184E090E00E94A62A60E086E090E048
:1047C0000E94882A6FEF87E090E00E94882A40E0EC
:1047D00050E0BA0188E090E00E949A2A60E08DE003
:1047E00090E00E94882A40E050E0BA0188E190E021
:1047F0000E949A2A60E087E190E00E94882A40E0C7
:1048000050E0BA018CE190E00E949A2A70E060E0EA
:1048100080E290E00E94A62A40E050E0BA0188E1E0
:1048200090E00E949A2A40E050E0BA018FE090E0C8
:104830000E949A2A40E050E0BA0183E190E00E9491
:104840009A2A82E090E00E94742A8093780384E0A0
:1048500090E00E94822A90936F0380936E0383E01E
:1048600090E00E94742A682F70E090E080E00E943F
:104870008E080E94E10A811102C00E94DD280E9478
:10488000A60F0E94E10A81112EC087EA95E090935D
:104890004501809344012DE030E0309340012093A6
:1048A0003F018DE290E090934301809342014CEAF6
:1048B00055E050934D0140934C01309348012093B3
:1048C000470190934B0180934A014EE85EE050937C
:1048D0005501409354013093500120934F01909320
:1048E00053018093520190E080E00E94822A873E2B
:1048F0009E4FB9F48FE090E00E947C2A8B01862FB6
:104900008F770E94790E001F0027001F612F6370B0
:10491000660F602B60930A0216951695137010931C
:104920000B0286E591E09093EE038093ED0328E17E
:10493000A22EB12C38E7832E33E0932E809104040D
:1049400000E112E1853009F496C00E942F1709E7B3
:1049500013E080E7E82E83E0F82E97E7C92E92E077
:10496000D92EB6019701F8019191D9018D919D0140
:10497000DB014D91BD018423B3E0E138FB0709F46D
:1049800086C0981789F30E94E10A282E612CF7014E
:1049900071907F01D6018D916D017822F8013190DF
:1049A0008F01371429F1512C442443943724832D4B
:1049B0008421B1F02220A1F05F82688691E0842DED
:1049C000872109F490E099870E94E7108160782F91
:1049D0009B878A874F81588569858B850E944422F1
:1049E0005394440CF6E05F12E2CFF80131977082E5
:1049F000639428E06212CBCF0E945A044CC080E836
:104A00005ECE80910404843021F10E94500B1092FC
:104A1000F103F0E40FB6F894A895A09260000FBEE1
:104A2000F093600083B7817F846083BF83B7816028
:104A300083BF7894889583B78E7F83BF0FB6F89431
:104A4000A89580916000886180936000109260005A
:104A50000FBE80910304882371F00E942F17E0E7B6
:104A6000F3E0A7E7B2E081919D91892309F04DC25F
:104A70008E169F06C1F780910404853009F4C1CFDA
:104A80001092F7030E9412110E94060B5ECF98133A
:104A90007ACF0E94CF220E94E10A882309F48DC0B8
:104AA0008091E4039091E503892B09F43EC0409185
:104AB000D9035091DA036091DB037091DC032FB7C7
:104AC000F8948091F2039091F303A091F403B091D4
:104AD000F5032FBF841B950BA60BB70B4091D50395
:104AE0005091D6036091D7037091D803841795072E
:104AF000A607B707D0F08091E4039091E5030E94E8
:104B00006F161092E5031092E4031092D9031092ED
:104B1000DA031092DB031092DC031092D50310929B
:104B2000D6031092D7031092D8030091E903109195
:104B3000EA0301151105B9F0809181039091820378
:104B40000E944B04893C910570F03EE0039FC00138
:104B50001124FC01ED59FE4F208122FD04C0825A30
:104B60009E4F0E94400C80911D0282FF15C00E9442
:104B7000E7102091D0033091D103AC01421B530BBD
:104B8000483C510548F043E853E0BC018091D20312
:104B90009091D3030E9487168091D403882369F0F3
:104BA0000E94E7102091890330918A03821B930BA6
:104BB0008F3F9F4710F40E94920C86E0E4EAF3E0F6
:104BC000DE01119601900D928A95E1F71092A603ED
:104BD0001092A7031092A8031092A9038B81811150
:104BE00004C08C81882309F44AC080919C03909171
:104BF0009D030E944B049C0190919703992309F413
:104C00009CC121313105D8F19F3F19F09F5F9093EE
:104C100097031B81112359F00E9481059FEF111604
:104C20000CF491E0899F802D11248093A6031C81B0
:104C3000112359F00E9481059FEF11160CF491E0A9
:104C4000899F802D11248093A7033091A6033323DD
:104C5000B1F02091A703222391F045EB3403C0016A
:104C60001124992309F43FC19093A60355EB250322
:104C700090011124332309F43AC13093A7038D81A5
:104C8000811104C08E81882309F44AC080919A035F
:104C900090919B030E944B049C019091980399234F
:104CA00009F44FC121353105D8F19F3F19F09F5FBD
:104CB000909398031D81112359F00E945F059FEF87
:104CC00011160CF491E0899F802D11248093A80384
:104CD0001E81112359F00E945F059FEF11160CF4FD
:104CE00091E0899F802D11248093A9033091A8031E
:104CF0003323B1F02091A903222391F045EB340333
:104D0000C0011124992309F4F6C09093A80355EB30
:104D1000250390011124332309F4F1C03093A90332
:104D200046E050E0BE016F5F7F4F84EA93E00E944F
:104D3000EA2A892B99F48091A6038111E4C080911D
:104D4000A7038111E0C08091A8038111DCC081E03C
:104D50009091A903911101C080E080FD0E94F310A1
:104D600086E0FE013196A4EAB3E001900D928A95A7
:104D7000E1F70E94500B0E94060B90918B0389175C
:104D800021F080938B030E945A040E94E10A882339
:104D900009F4D4CD0E945A042091920321113EC0FF
:104DA00000918E0310918F03209190033091910315
:104DB0006B017C01C01AD10AE20AF30A970186014D
:104DC000043F11402105310548F160938E03709333
:104DD0008F03809390039093910380918C03909123
:104DE0008D03019690938D0380938C0319828E011D
:104DF0000F5F1F4F21E050E040E060E087E00E943D
:104E0000130D882359F081E0809392038093F90178
:104E10009981911101C080E08093FA018091FA019B
:104E2000882309F48BCD0E945A046B017C01809188
:104E3000930390919403A0919503B0919603A701D9
:104E40009601281B390B4A0B5B0BDA01C901049749
:104E5000A105B10580F119821A821B821C828E0184
:104E60000F5F1F4F24E050E040E060E088E00E94C8
:104E7000130D8823C1F069817A818091FF0190919F
:104E800000020E943E0A909300028093FF016B8112
:104E90007C8180910102909102020E943E0A9093CF
:104EA000020280930102C0929303D0929403E09295
:104EB0009503F092960380910402882309F43ECD75
:104EC00080910302898310E000E020E0AE014F5F93
:104ED0005F4F61E089E00E94130D882309F42ECD15
:104EE000109204022BCD81E08093A603BFCE81E017
:104EF0008093A703C4CE81E08093A80308CF81E00C
:104F00008093A9030DCF81E028CF09BD19BD09B455
:104F100000FEFDCF8091D8008F7D8093D8008091D6
:104F2000E00082608093E0008091E00081FDFCCF92
:104F30001092F7030E9412119ECD232B09F066CE2A
:104F40009ECE232B09F0B3CEEBCE289A219A229A3B
:104F500023982B9880E58CBD089590911F029F3F68
:104F600009F072C08F3F09F46FC0611145C0109203
:104F70000F0490910F04423009F442C0433009F409
:104F800043C094604130E9F141E050E042175307DB
:104F9000E8F190910F044031510509F453C0C8F570
:104FA0004230510509F447C04830510509F447C063
:104FB0009CB520910F04922B9CBD90910E049923D7
:104FC00019F09DB591609DBD80931F02E82FE29579
:104FD000EF70F0E031A1282F2F7081E090E001C048
:104FE000880F2A95EAF7932F982B91A392A1809589
:104FF000892382A381E0089590E290930F04B9CFB2
:10500000986090930F04C0CF9C60FBCF440F551F56
:10501000BDCF4034510549F04038510541F0403290
:10502000510531F621E020930E04926001C0936097
:1050300090930F04BDCF91E090930E04B9CF21E07F
:1050400020930E049160F4CF80E00895CF93DF9316
:105050008EBD0E94E710EC010DB407FE05C08EB5B1
:1050600090E0DF91CF9108950E94E7108C1B9D0B7B
:105070008436910588F38EEF9FEFF3CFCF93DF93C4
:105080001EBC0E94E710EC010DB407FE05C08EB5F2
:1050900090E0DF91CF9108950E94E7108C1B9D0B4B
:1050A0008436910588F38EEF9FEFF3CF80911F0236
:1050B0008F3F29F1E82FE295EF70F0E041A18F706A
:1050C00021E030E0B90102C0660F771F8A95E2F750
:1050D000CB01942F982B91A392A1892B82A38FEFC0
:1050E00080931F028DB58E7F8DBD9CB580910F047E
:1050F000809589238CBD10920F0410920E040895A0
:105100008EE14A9B02C08150E1F74A9BFECF089591
:105110005A9880E28A95F1F75A9A0895FC013BE08B
:105120003A95F1F798E020E080E031E040E14A95DF
:10513000F1F7880F4A9B02C08160232742E04A951D
:10514000F1F7000040E14A95F1F7915079F790E1CD
:105150009A95F1F799B132E03A95F1F7000040E104
:105160004A95F1F792FB992790F992272081920FA7
:1051700090830895A1E0B0E0E0ECF8E20C94492AB5
:1051800019828C017C01E60EF11C0E151F0541F4FD
:1051900081E09981911180E02196E6E00C94652AE6
:1051A0000E948028CE0101960E948E28F8018193EA
:1051B0008F01EBCF529A5A9A089552985A9AEA9AC6
:1051C000E9E6F0E080818F7C808308956150770B61
:1051D00091E001C0990F6A95EAF720E031E0911162
:1051E00008C0222391F05A9A80E28A95F1F75A98E2
:1051F0000895492F482339F05A9A232740E24A95C7
:10520000F1F79695ECCF5A98F9CF5A98EDCFFF92D7
:105210000F931F93CF93DF93EC018C01060F111DA9
:10522000C017D10729F4CDB7DEB7E5E00C94662AA4
:10523000F9900E94882868E08F2D0E94E628F0CF20
:105240001F920F920FB60F9211240F931F932F935B
:105250003F934F935F936F937F938F939F93AF93FE
:10526000BF93EF93FF93CF93DF931F92CDB7DEB73A
:1052700019820E948028CE0101960E948E28082F54
:10528000069506950695982F92959570202F257076
:10529000920F292F237096959695920F87708913F8
:1052A0005FC0898181115CC00B3008F059C080E17A
:1052B0008A95F1F75A9A529A82E08A95F1F700C0DE
:1052C0005A9888E0089F80011124D801AA5FBE4F38
:1052D0001696ED91FC9117973097A9F060916B02AB
:1052E00070916C0214962D913C911597260F371FE3
:1052F00011968D919C911297680F791F13964C917E
:1053000013978C910995F801EA5FFE4F638166233C
:1053100051F080916B0290916C0224813581820F53
:10532000931F0E9407290E94882880E18A95F1F73F
:105330005A9852985A9A80E18A95F1F7F801EA5FF3
:10534000FE4F6081662351F080916B0290916C0258
:1053500021813281820F931F0E94BA280E948028E7
:105360000F90DF91CF91FF91EF91BF91AF919F91FE
:105370008F917F916F915F914F913F912F911F91ED
:105380000F910F900FBE0F901F9018950F931F93C2
:10539000CF93DF938B3091050CF04DC0EC01F89466
:1053A000529A5A9885E08A95F1F700009C2F9695BD
:1053B00095708C2F8570980F892F83709695969590
:1053C00023E0CC0FDD1F2A95E1F7980F8E01092B02
:1053D0000E94882800C068E0802F0E94E62880E1B3
:1053E0008A95F1F752985A9A4A9B1EC087E090E03E
:1053F0004A991CC0FE01EA5FFE4F63816623F9F003
:1054000080916B0290916C0224813581820F931FF1
:105410000E94BA28811113C0529A5A9A7894DF9147
:10542000CF911F910F91089500C0DECF019729F40D
:10543000529A5A9A789480E0F2CF00C0D9CF0E9455
:10544000802880E28A95F1F75A98529A80E18A95ED
:10545000F1F7CA5FDE4F6881662351F080916B02DD
:1054600090916C0229813A81820F931F0E94072933
:105470000E948828789481E0D2CF2F923F924F9259
:105480005F926F927F928F929F92AF92BF92CF92D4
:10549000DF92EF92FF920F931F93CF93DF93CDB7DD
:1054A000DEB7CA1BDB0B0FB6F894DEBF0FBECDBF55
:1054B00009942A88398848885F846E847D848C8426
:1054C0009B84AA84B984C884DF80EE80FD800C812F
:1054D0001B81AA81B981CE0FD11D0FB6F894DEBF12
:1054E0000FBECDBFED010895F999FECF92BD81BDEC
:1054F000F89A992780B50895A6E1B0E044E050E01D
:105500000C94AE2AA8E1B0E042E050E00C94AE2A40
:10551000262FF999FECF92BD81BDF89A019700B46C
:10552000021639F01FBA20BD0FB6F894FA9AF99A0C
:105530000FBE08950396272F0E94892A0E94882A69
:10554000252F0E94892A242F0C94892A0196272F1F
:105550000E94892A0C94882ADC01CB01FC01F9996C
:10556000FECF06C0F2BDE1BDF89A319600B40D92AF
:1055700041505040B8F7089597FB072E16F4009459
:1055800007D077FD09D00E94D62A07FC05D03EF44B
:10559000909581959F4F0895709561957F4F0895DF
:1055A000EE0FFF1F0590F491E02D0994AA1BBB1B81
:1055B00051E107C0AA1FBB1FA617B70710F0A61B13
:1055C000B70B881F991F5A95A9F780959095BC0134
:1055D000CD010895FB01DC0104C08D91019080197B
:1055E00021F441505040C8F7881B990B0895FB01E6
:1055F000DC0102C001900D9241505040D8F708954F
:04560000F894FFCF4C
:105604002002000001010000000100000000000071
:10561400000401000000040500000000000004096B
:1056240000000000E505200D000000000000010A54
:1056340000000000C205000000202D000000000052
:105644000000000000000000000000000000000056
:1056540000000000000048049A0A930A8C0A000023
:1056640000000000000055110000000000000000D0
:10567400000000008309000000000000000000009A
:105684000000780900000000000000000000000095
:105694006D09000000000000000000000000620925
:1056A4000000000000000000000000005709000096
:1056B400000000000000000000004C090000000091
:1056C400000000000000000041090000000000008C
:1056D4000000000000003609000000000000000087
:1056E400000000002B090000000000000000000082
:1056F400000020090000000000000000000000007D
:105704000000000000000000000000000000000095
:10571400000000000000B0B0B0B0B0B0000101FF64
:10572400737C22FFFFFFFF00223900070000000006
:105734000000818283E200E900EA00B500B600B708
:1057440000CD008301CC008A01920194012102233F
:105754000224022502260227022A02B300B4006FA3
:105764000070009F01CB019F02A002FE02F4F5F637
:10577400F7946697C634351F1F1F3F1F1F1F3F0036
:00000001FF
