:10000000D1C20000ECC20000EAC200000C9400283B
:10001000E6C20000E4C20000E2C20000E0C200004C
:10002000DEC20000DCC200000C9437250C941F26B1
:100030000C94F50FD4C20000D2C20000D0C2000060
:10004000CEC20000CCC20000CAC20000C8C200007C
:10005000C6C200000C941325C2C20000C0C200003A
:10006000BEC20000BCC20000BAC20000B8C200009C
:10007000B6C20000B4C20000B2C20000B0C20000AC
:10008000AEC20000ACC20000AAC20000A8C20000BC
:10009000A6C20000A4C20000A2C20000A0C20000CC
:1000A0009EC200009CC200009AC200000501090225
:1000B000A10185020901A1000509190129081500FE
:1000C0002501950875018102050109300931158165
:1000D000257F95027508810609381581257F9501D0
:1000E00075088106050C0A38021581257F95017572
:1000F000088106C0C005010980A101850319012AF4
:10010000B700150126B700950175108100C0050CD8
:100110000901A101850419012AA002150126A002E6
:10012000950175108100C005010906A10105071997
:10013000E029E715002501950875018102950175F3
:100140000881010507190029FF150026FF00950603
:100150007508810005081901290515002501950577
:1001600075019102950175039101C009023B0002DE
:100170000100A0FA09040000010301010009211196
:100180000100012244000705810308000109040160
:10019000000103000000092111010001227B00077A
:1001A00005820320000112010002000000085759D7
:1001B000000200010102000114034B0065007900F8
:1001C000620061006C006C00330039000000100315
:1001D00059006F0077006B00650065007300000038
:1001E0000403090414001A00080015001700000099
:1001F00004281624072109220A0000001D431B348D
:10020000060019000500000000000000000029465B
:100210002C442B45130012000C0018001C00000099
:1002200034280F240E210D220B00000038433734F0
:1002300036001000110000000000000000004C49D2
:100240002A47284814001A0008001500170000006B
:1002500004281624072109220A0000001D431B342C
:1002600006001900050000000000000000002946FB
:100270002C442B45130012000C0018001C00000039
:1002800034280F240E210D220B0000003843373490
:1002900036001000110000000000000000004C4972
:1002A0002A47284814001A0009001300050000001E
:1002B00004001500160017000A0000001D001B00B6
:1002C00006000700190000000000000000002900DF
:1002D0002C002B0034001C0018000F000D00000043
:1002E00012000C0008001100100000003800370058
:1002F00036000B000E0000000000000000004C0063
:100300002A0028007A004C024901490279000000C5
:10031000E300E200E000E100000000007A004C028F
:100320004901490279000000000000000000D300EC
:10033000D100D2007A004C02490149027900000044
:10034000E300E200E000E100000000007A004C025F
:100350004901490279000000000000000000D300BC
:10036000D100D20000570357025701570000000088
:10037000E300E200E000E100000000000000E60011
:1003800008570557000000000000000000000000B2
:10039000000000007A004C02490149027900000087
:1003A0004F00520051005000737C00004D004B0084
:1003B0004E004A00490000000000000000004C0010
:1003C0002A00280000570357025701570000000079
:1003D000E300E200E000E100000000000000E600B1
:1003E0000957065700000000000000000000000050
:1003F000000000007A004C02490149027900000027
:10040000D000CD00CE00CF0000000000DC00D900FD
:10041000DA00DB0000000000000000000000D30054
:10042000D100D200005703570257015700000000C7
:10043000E300E200E000E100000000000000E60050
:100440000A570757000000000000000000000000ED
:100450000000000027782578237821782078000094
:10046000AB00A900AA00AC000000000000000000E2
:100470000000000080770000000000000000A800DD
:10048000AE00AD002F002400250026003000000043
:1004900033002100220023002E00000035001E0042
:1004A0001F002000310000000000000000003700A5
:1004B00027002D0000570357025701570000000086
:1004C000E300E200E000E100000000000000E600C0
:1004D0000557085700000000000000000000000061
:1004E000000000002F022402250226023002000034
:1004F00033022102220223022E02000035021E02D4
:100500001F0220023102000000000000000026024D
:1005100027022D0200570357025701570000000021
:10052000E300E200E000E100000000000000E6005F
:1005300006570957000000000000000000000000FE
:10054000000000004500400041004200460000005D
:1005500044003D003E003F004700000043003A00D9
:100560003B003C0048000000000000000000650067
:100570002C002B00005703570257015700000000C2
:10058000E300E200E000E100000000000000E600FF
:1005900007570A570000000000000000000000009C
:1005A0000000000011241FBECFEFDAE0DEBFCDBF98
:1005B00012E0A0E0B1E0E0E0F4E502C005900D92A9
:1005C000AC38B107D9F724E0ACE8B2E001C01D9225
:1005D000A534B207E1F70E9484200C94C52910CD00
:1005E0009C01860F971F6095709537FD07C06823A3
:1005F000792377FF09C08FEF9FE70895682B792B48
:1006000077FD02C080E090E808950F931F93CF9389
:10061000DF93EC01FB018091E101811101C084E0D5
:100620008150990B01E010E002C0000F111F8A9564
:10063000E2F788819981B8010E9442299B01888351
:1006400099838A819B81B8010E9442298A839B8376
:1006500061388FEF7807ECF060387105E4F465835A
:1006600021388FEF3807CCF020383105C4F4822FC1
:1006700081958483411519F0619565832483809168
:10068000E201813070F079F0DF91CF911F910F91ED
:10069000089561E8E4CF6FE7E2CF21E8E8CF2FE7E4
:1006A000E6CF1582F1CF1482EFCF8091CF01F9010F
:1006B000808308958091D2019091D301A091D401BB
:1006C000B091D501F90180839183A283B383109205
:1006D000D2011092D3011092D4011092D501089545
:1006E0009C0191509F31B0F4832F817034FF0AC078
:1006F0008295807F31FD806232FD806433FF0BC0C4
:100700008068089531FD826032FD846033FF03C04C
:100710008860089580E00895CF93DF93EB01E0DFD8
:10072000FE010995DF91CF9108956093EF037093D7
:10073000F0038093F1039093F2030895FC0182810A
:10074000823029F460E072E080E090E0EECF08951E
:10075000FC018281823029F461E070E080E090E069
:10076000E4CF0895FC018281823029F462E070E0D8
:1007700080E090E0DACF0895FC018281823029F494
:1007800064E070E080E090E0D0CF0895FC018281C9
:10079000823029F468E070E080E090E0C6CF0895F0
:1007A000FC018281823029F460E170E080E090E019
:1007B000BCCF0895FC018281823029F460E270E0B0
:1007C00080E090E0B2CF0895FC018281823029F46C
:1007D00060E470E080E090E0A8CF0895FC018281A1
:1007E000823029F460E870E080E090E09ECF0895C8
:1007F000FC018281823029F460E071E080E090E0C9
:1008000094CF08956093F3037093F4038093F503FA
:100810009093F603089541E050E060E070E004C07A
:10082000440F551F661F771F8A95D2F78091F303F7
:100830009091F403A091F503B091F603482B592B46
:100840006A2B7B2BCB01BA01DDCF41E050E060E0A9
:1008500070E004C0440F551F661F771F8A95D2F7BA
:1008600040955095609570958091F3039091F403B5
:10087000A091F503B091F603482359236A237B2303
:10088000CB01BA01BFCF292F983098F5863088F573
:1008900090E036E0239F800D911D112451E081FDF1
:1008A00054E080FD550F82FD529523E09695879583
:1008B0002A95E1F725E0289FF001299FF00D1124EA
:1008C000E056FC4F20E030E070E04191DF01CB01C9
:1008D000022E02C0969587950A94E2F78695880BBA
:1008E0008427852384278E932F5F3F4F2530310542
:1008F00061F70895292F983078F5863068F590E0F3
:1009000036E0239F800D911D1124682F677023E02E
:10091000969587952A95E1F725E0289FF001299F74
:10092000F00D1124E056FC4F40E050E080E02191B2
:1009300030E0062E02C0369527950A94E2F7217022
:10094000042E01C0220F0A94EAF7822B4F5F5F4FFB
:100950004530510561F7089580E00895E091FC036A
:100960009091FB03E91302C080E008959F0157E0D6
:10097000E59FF0011124E350FC4F5181561306C04E
:100980005081581303C05581541305C02F5F3F4F4A
:10099000F901E770E7CF81E008958091FC03209191
:1009A000FB03281301C0089501968770FACF909138
:1009B000F703809589238093F703282F277061F42C
:1009C000891751F09091F90392FF06C0869586959C
:1009D00086953BDF1092F70308959091E103982BE1
:1009E0009093E10308958095982F8091E1038923E6
:1009F0008093E10308958095982F8091FA038923CD
:100A00008093FA0308959091F90392FF05C09091A5
:100A1000ED0398138093ED030895FC01F235B8F5CA
:100A2000F03508F0BBC0E03EF105F0F4ED3CF10517
:100A300008F092C0E83AF10570F4E53AF10508F0E3
:100A40007BC0E130F10529F0CF010497813A91058F
:100A500040F4CF010895CF01885A91094B9708F4CB
:100A60006FC0E0E0F0E0F5CFF03460F4F03208F071
:100A7000AAC0E83EF10568F3CF0191509C01211511
:100A80003F41E6CFCF019F70906AFC01E2CFE03892
:100A900082E5F807C8F5E03682E5F80708F064C09B
:100AA000E03482E5F807D0F4E03282E5F80708F098
:100AB00055C02E2F2695269590E2299F900111244E
:100AC0008E2F837041E050E002C0440F551F8A957D
:100AD000E2F7CA01822B932B9D68D7CF2E2F269544
:100AE0002695277090E2299F900111248E2F837004
:100AF00041E050E002C0440F551F8A95E2F7CA0159
:100B0000822B932B9C68C1CFE03C82E5F80748F428
:100B10002E2F2F71E03AF245E8F5922F84EF906A7C
:100B2000B4CFCF01805C9245809708F09ACF9E2F7A
:100B30009F7180EF906AA9CFCF0184979064A5CF71
:100B40008E2F885AE82FF0E0EE0FFF1FE45EFD4F76
:100B500080819181946499CFF0657BCF8E2F8F71C6
:100B6000982F81EF906A91CF2E2F2695269527708A
:100B700090E2299F900111248E2F837041E050E074
:100B800002C0440F551F8A95E2F7CA01822B932BAE
:100B90009A687BCF80E0922F906277CFCF0123E0DD
:100BA000880F991F2A95E1F7392F3F706E2F6F71CB
:100BB000462FE4FF04C080E1689FA0011124242F88
:100BC000C901906962CFCF019F71E6CF972F78302E
:100BD000C8F46630B8F48A30C0F470E026E0929F22
:100BE000600D711D112490E3899F600D711D11240A
:100BF000FB01EE0FFF1FEC51FE4F85919591282FC1
:100C0000822F089520E090E0FBCF21E0FCCFAF924F
:100C1000BF92CF92DF92EF92FF921F93CF93DF9319
:100C20005C01C090F303D090F403E090F503F090E2
:100C3000F6038091EF039091F003A091F103B0913E
:100C4000F203C82AD92AEA2AFB2ACFE1D0E0C6015A
:100C5000D7010C2E04C0B695A795979587950A9451
:100C6000D2F780FD0EC0219790F710E0812FDF9121
:100C7000CF911F91FF90EF90DF90CF90BF90AF90FA
:100C800008951C2FB5018C2FA1DFC7DE019759F302
:100C9000EDCF1F93CF93DF93FC012581C081D181DC
:100CA000CE01211571F0611561F0B1DF182F682FA9
:100CB000CE01E9DDBE01812F89DFDF91CF911F9148
:100CC000089518DE182FF6CFCF93DF93EC019FDF46
:100CD000BE017CDFA2DEDF91CF910895FC0124816B
:100CE000211599F080819181EFDF282F92959F70D7
:100CF000963099F060F4925F9F70923030F4203F0C
:100D0000B1F038F481E0283E38F080E008959A5F31
:100D1000F3CF81E0243FC9F7089591E0213F09F026
:100D200090E081E0283E08F080E0892B089581E082
:100D3000089580E00895F894E82FE295EF70F0E0D0
:100D400041A18F7021E001C0220F8A95EAF7922F0E
:100D50009095942391A392A1822F892B82A37894BA
:100D600008958091310380932F0180913203809305
:100D7000420108959C0143E0369527954A95E1F795
:100D80002E7130E0F901EA53FD4F408151818F709F
:100D900090E0E82F81E002C0880F991FEA95E2F702
:100DA000611541F0482B592B2A533D4FF9014083DF
:100DB000518308958095909548235923F5CFFC01E0
:100DC000680F791F8FEF41E39191892728E030E088
:100DD000982F990F87FF09C0892F84272150304011
:100DE000B9F7E617F70781F70895892FF7CF63E082
:100DF00070E080E393E0E3DF90912F03891318C044
:100E0000E0913003EA30A4F488E0E802F001112414
:100E1000E15FFE4F0680F781E02D309749F023E532
:100E200033E04091320363E373E08091310309952D
:100E30000895FC018781862351F492819115B9F0C0
:100E40006923838583FF05C081E061110FC080E0C5
:100E50000895292F22952F709F70292B962F9295F8
:100E60009F706F70962B81E02913F1CF089581E078
:100E70000895382F25EB3203C001112497FF04C0D9
:100E800080589109892F089580589F4FFBCF8091FA
:100E9000C00380FD16C081FD16C082FD18C0809180
:100EA000BF03811591F0803490F420E3829FC0014C
:100EB000112426E0959587952A95E1F7009749F04A
:100EC00008958CE0089588E1089588E0089580E30E
:100ED000089581E008958091C00380FD17C081FDD1
:100EE00017C082FD19C08091BE03811599F0883228
:100EF00098F428E0829FC001112468E270E00E940B
:100F000042296115710551F0862F089562E0FCCFEA
:100F100064E0FACF61E0F8CF68E0F6CF81E00895B1
:100F20008B3068F5E1EBF2E040E050E097E0949F11
:100F30009001959F300D1124D901AA54BD4F7C9189
:100F400073FF07C07681781304C0C9018F549D4F89
:100F500008954F5F5F4F37964330510541F7611554
:100F600071F09091B60293FF0DC09091BD0293FF76
:100F70001CC09091C40242E050E093FF05C080E0A5
:100F800090E0089540E050E097E0949FD001959F55
:100F9000B00D1124FD01EF54FD4F8683AA54BD4FBF
:100FA0008C9188608C93CF01089541E050E0ECCFA4
:100FB0004115510511F0FA010995089580914004F9
:100FC000811571F0E0919603F0919703309739F015
:100FD0000190F081E02D309711F00995089580E09F
:100FE0000895E0919603F0919703309759F0268188
:100FF0003781232B39F022E0DC012C930680F78126
:10100000E02D09950895A3E0B0E0E9E0F8E00C9444
:101010001B292091AF023091B00228173907B1F097
:101020008093AF029093B002E0919603F091970302
:10103000309761F00084F185E02D309739F023E09E
:1010400029838A839B83CE01019609952396E2E04A
:101050000C943729A3E0B0E0E0E3F8E00C941B29FE
:101060002091AD023091AE0228173907B1F080937C
:10107000AD029093AE02E0919603F0919703309702
:1010800061F00084F185E02D309739F024E0298368
:101090008A839B83CE01019609952396E2E00C9406
:1010A00037299C01FC01329680E09FEF4081461772
:1010B00059F031969F3F19F4411101C0982F8F5F6D
:1010C0008630A1F79F3F09F40895290F311D97FD40
:1010D0003A95F90162830895E0E9F2E0919189136C
:1010E00002C0DF011E9292E0E639F907B9F70895D0
:1010F000DC01FB0111969C9111978181981322C00C
:1011000012968C911297811519F0928189131AC049
:1011100013968C911397811519F09381891312C03E
:1011200015968C911597811519F0958189130AC030
:1011300014969C91911521F081E02481291303C01C
:1011400080E001C081E081700895809101010895DF
:101150002FB7F8946091A9027091AA028091AB0216
:101160009091AC022FBF0895CF93C82F8091DC01DE
:101170008C1749F0EDDF6093DD017093DE01809301
:10118000DF019093E001C093DC01CF91089580913D
:101190004004811539F0DCDF462F572FBC01CB010D
:1011A000BA010895D5DFDC01CB0140919003509145
:1011B00091036091920370919303480F591F6A1F26
:1011C0007B1FEDCFCF92DF92EF92FF92CF93DF9311
:1011D000EC01C090D703D090D803E090D903F090F1
:1011E000DA03B6DFDC01CB018C199D09AE09BF091A
:1011F000843F9140A105B10508F1AADF6B017C0194
:1012000082E390E0C0920603D0920703E0920803C5
:10121000F092090380930203909303031092040356
:1012200010920503CE01C093D5039093D603DF91AE
:10123000CF91FF90EF90DF90CF90089584EF91E0F1
:10124000E1CF0895FC0120919F023091A002261762
:10125000370748F06115710529F49091E8009E77F1
:101260009093E8009B0190E02115310541F4911124
:1012700006C08091E80082FF32C080E0089580912E
:10128000F0028115C1F18530C1F18091E80083FD44
:1012900030C08091E80082FDECCF8091E80080FFB3
:1012A000E3CF8091F3004091F200582F21153105D2
:1012B00019F04830510558F091E04830510509F0D7
:1012C00090E04091E8004E774093E800CDCF8191C7
:1012D0008093F100215031094F5F5F4FE7CF80913C
:1012E000F002811541F0853041F08091E80083FFE4
:1012F000C0CF81E0089582E0089583E00895982F9B
:101300009093E900891771F07091EC002091ED0045
:101310005091F00021FD09C09F5F973089F78093BD
:10132000E9000895762F242F50E03091EB003E7FA6
:101330003093EB003091ED003D7F3093ED00309124
:10134000EB0031603093EB007093EC002093ED00E4
:101350005093F0002091EE0027FDDECF089580919C
:10136000990287FF13C08091E80082FF06C0809138
:10137000E8008B778093E80008958091F002811156
:10138000F2CF08958091F0028115D9F38091E800A1
:1013900080FFF8CF8091E8008E77ECCF2091E400B9
:1013A0003091E50095E6A9012091EC00822F817033
:1013B00020FF06C08091E80080FF06C080E008950D
:1013C0002091E80022FD1AC08091F002811589F079
:1013D000853089F08091EB0085FD0FC02091E400FD
:1013E0003091E50042175307F9F29150E1F684E09D
:1013F000089582E0089583E0089581E00895CF93F1
:10140000DF93C8EDD0E088818F7E8883E7EDF0E040
:1014100080818160808384E082BF81E08093980234
:1014200088818E7F8883E2EE10821092DA00A1EE2E
:10143000B0E01C9288818F77888388818068888358
:1014400088818F7D888319BC1092F00210929702D8
:101450001092EF0210929602A0EE8C918B7F8C93EB
:1014600088818160888342E060E080E048DFA1EE0F
:10147000B0E08C918E7F8C93E2EEF0E08081816011
:101480008083808188608083E0EE80818E7F80838E
:10149000888180618883DF91CF910895E8EDF0E045
:1014A00080818E7F80831092E2001092DA00109289
:1014B000E100A0EEB0E08C9181608C9380818F7709
:1014C000808319BCA7ED8C918E7F8C9380818F7E59
:1014D000808310929802089528E030E043E060E0B5
:1014E00086E30C94F526A0E0B0E0E9E7FAE00C947E
:1014F00013297C016B015A01809177030AE010E007
:101500008A3010F001E010E0C1E0D0E0B601C70180
:10151000F5010995811115C021960C171D078CF056
:10152000CC9F9001CD9F300D300D112480E090E0D4
:1015300045E34A95F1F70000019682179307C1F73A
:10154000E5CFCDB7DEB7EAE00C942F290F931F93B8
:10155000CF93DF93EB018A019091F002943059F51B
:101560008093E9008FEF9091E80095FD06C095ED1E
:101570009A95F1F700008150B1F78091E80085FF5E
:101580001AC00CDF811112C08091E80085FD06C0F1
:101590008091E8008E778093E800F3CF8881809374
:1015A000F1000150104011F02196EECF8091E8003B
:1015B0008E778093E800DF91CF911F910F9108956E
:1015C000CF93DF93EC0148E050E0BC0181E0BEDF47
:1015D00088E0FE01A1EAB2E001900D928A95E1F760
:1015E000DF91CF91089546E050E0BC0182E0AECF9C
:1015F00043E050E0BC0182E0A9CFCF93C82F6CDF5D
:101600008C2F0E9407278FE792E00197F1F700C027
:1016100000000E941F27C82F85E08A95F1F700007F
:101620000E94372785E68A95F1F700001092420460
:101630008C2FCF910895CF93DF93C82FD62F4CDFF7
:101640008C2F80680E9407278D2F0E9407278AEB26
:101650008A95F1F700C00E94372783E492E0019752
:10166000F1F700C00000DF91CF910895682F89370E
:1016700008F068E76093DA0191E09093DB019091C4
:10168000CF01911531F06150811101C064E08FE00C
:10169000D2CF08952091DA01211101C025E0982FC1
:1016A000990F990B820F911D181619060CF081E005
:1016B000DDCFFB018081DACFACE0B0E0E2E6FBE019
:1016C0000C9415294F83588769877A878B879C8765
:1016D000162F072F8091CF01811509F443C0809107
:1016E0004204811106C060E080E5A5DF81E08093BF
:1016F0004204F2DE80E50E9407278AEB8A95F1F723
:1017000000C00E941F270E941F270E941F277C01E4
:101710000E941F27382F2E2D3F2969010E941F2765
:101720007C010E941F27F82A0E94372785E08A95AE
:10173000F1F70000F894B6018091D2019091D301A5
:101740000E94F0028093D2019093D301B70180915F
:10175000D4019091D5010E94F0028093D40190931E
:10176000D501789480914004811509F468C0F0DCBB
:1017700020913C0430913D0440913E0450913F043F
:101780006B017C01C21AD30AE40AF50A9601A7018B
:10179000283031054105510508F451C060933C04DF
:1017A00070933D0480933E0490933F042091DD01AB
:1017B0003091DE014091DF015091E001621B730B1B
:1017C000840B950B623371058105910580F41092AD
:1017D000D2011092D3011092D4011092D50110922F
:1017E000D6011092D7011092D8011092D901E09041
:1017F000DC01F0904104E114C9F14F2DCE010796B0
:10180000BC0182ED91E00E94050381E04F2D482745
:101810008091CF01E81609F452C0CE010796BC01B1
:1018200086ED91E00E94050319870A8786E0FE0194
:101830003796A7EEB1E001900D928A95E1F71987EE
:101840000A8786E0FE013796DE01119601900D921F
:101850008A95E1F729813A814B815C816D817E8196
:1018600080E090E02C96E8E00C9431298091D4013E
:101870009091D50111E881382FEF92072CF0182FA5
:10188000803891050CF01FE78091D2019091D3012F
:1018900001E881382FEF92072CF0082F803891054E
:1018A0000CF00FE7F11411F0119501951092D2018F
:1018B0001092D3011092D4011092D501A6CF80913D
:1018C000D8019091D90111E881382FEF92072CF0BF
:1018D000182F803891050CF01FE78091D601909168
:1018E000D70101E881382FEF92072CF0082F8038BC
:1018F00091050CF00FE7411511F01195019510922B
:10190000D6011092D7011092D8011092D9018CCF34
:10191000CF93DF930E946226269ADEDD6AE58AE392
:101920008ADE8FEF90E722E0815090402040E1F77F
:1019300000C0000082E061DE83E05FDE84E05DDE07
:1019400085E05BDE86E059DE60E080E174DE80E009
:1019500054DED82F81E051DEC82F0E943727D234C1
:1019600061F4C13051F4C093CF0164E08FE063DED5
:101970008091CF01DF91CF9108951092CF01F8CFE0
:101980009091F90392FB222720F9281771F080FB30
:1019900092F99093F9036091F8037091F90384E050
:1019A00090E00E949B2982E002C80895CF9367EEE1
:1019B00072E087EC93E09CDBC82F811519F087EC6F
:1019C00093E00FDB9091C80386E0E7ECF3E0282F6B
:1019D00011922A95E9F79093C803E7ECF3E0A7EE9C
:1019E000B2E001900D928A95E1F781E0911101C07A
:1019F00080E08C2BCF910895A4E2B0E0E2E0FDE01E
:101A00000C941B298091ED02833009F0AEC0409107
:101A1000C7035091C8036091C9037091CA038091B4
:101A2000CB039091CC0348DE2093C7033093C803C7
:101A30004093C9035093CA036093CB037093CC03C4
:101A400086E0E7ECF3E0DE01179601900D928A95AF
:101A5000E1F786E0FE013796DE011D9601900D92BA
:101A60008A95E1F786E0FE013D969E012F5F3F4F8C
:101A7000D90101900D928A95E1F786E0F901A7EC72
:101A8000B3E001900D928A95E1F786E0E7ECF3E090
:101A9000DE01179601900D928A95E1F786E0FE012E
:101AA0003796DE01539601900D928A95E1F786E014
:101AB000FE017396D90101900D928A95E1F786E0B7
:101AC000F901A7ECB3E001900D928A95E1F786E069
:101AD000E7ECF3E0DE015F9601900D928A95E1F765
:101AE00086E0FE017F96DE01179601900D928A95A1
:101AF000E1F786E0FE013796D90101900D928A95B3
:101B0000E1F786E0F901DE01599601900D928A9580
:101B1000E1F786E0FE017996DE01179601900D92BD
:101B20008A95E1F786E0FE013796A7ECB3E00190D5
:101B30000D928A95E1F786E0E1ECF3E0DE0117967D
:101B400001900D928A95E1F788859091C803892BC1
:101B50008093C8032BDF811102C08091E6021092AE
:101B6000E602A496E2E00C94372980E0FACF909147
:101B7000E1038091FA03982B8091ED03811589F0A0
:101B8000982B80E020E932E0F90140812F5F3F4F40
:101B900041118F5F42E026393407B1F7811110926D
:101BA000ED038091D103809589239091D003892BF7
:101BB00080938E0248E050E068E973E08EE892E09E
:101BC0000E94AF29892BB9F088E0EEE8F2E0A8E99D
:101BD000B3E001900D928A95E1F7E0919603F091C0
:101BE0009703309741F00280F381E02D309719F090
:101BF0008EE892E009950895811519F00E94ED0490
:101C0000B6CF0895811519F00E94F304B0CF08955E
:101C1000811531F09091FA03982B9093FA03A7CF96
:101C20000895811519F00E94FB04A1CF08958091B9
:101C3000CD03811521F082E2F4DF1092CD030895E7
:101C40008091CE01877F8093CE018091CD03811159
:101C500003C082E00E94FB048091CE0184FF06C095
:101C60008F7E8093CE0182E00E94ED048091CE01B0
:101C700085FF06C08F7D8093CE0180E20E94ED0437
:101C800076CFCF93DF93EB01FC01448155816085D2
:101C90007185CE018DD98B810E94FB048C810E94BD
:101CA000F30465DF87E019928A95E9F7DF91CF9118
:101CB00008950F931F93CF93DF938C01EB018D81D8
:101CC00081FD13C082608D838091FA039B81892BF3
:101CD0008093FA038C810E94ED0449DFF801428170
:101CE000538160857185CE0163D91092DD03109216
:101CF000DE038D8180FD03C0BE01C801C2DFDF911C
:101D0000CF911F910F910895CF92DF92FF920F9381
:101D10001F93CF93DF936901E801082F880F110B00
:101D200041155105B1F0F80133E0EE0FFF1F3A9570
:101D3000E1F7E15FFE4F818192818A5D9C4FE081F6
:101D40002E2F30E04E17510508F49A01A9010E9488
:101D5000BC29C8010E949D28F82E8115E1F020972A
:101D6000D1F0C80123E0880F991F2A95E1F7FC0103
:101D7000E15FFE4F2381422F50E0C217D10508F4E6
:101D8000AE01815F9E4FFC01648175816A5D7C4F6D
:101D9000C6010E94BC298F2DDF91CF911F910F9119
:101DA000FF90DF90CF900895A4E0B0E0EAEDFEE070
:101DB0000C941729E0901A03F0901B0300911C0368
:101DC00010911D03C5D9DC01CB018E199F09A00B11
:101DD000B10B11E084369105A105B10500F1D7D909
:101DE000DC01CB010296A11DB11D89839A83AB83CF
:101DF000BC8300E010E0980144E050E0BE016F5F5A
:101E00007F4F82E081DF182F811549F0A1D96093BF
:101E10001A0370931B0380931C0390931D03812F5F
:101E20002496E6E00C9433298F929F92AF92BF9252
:101E3000CF92DF92FF920F931F93CF93DF9300D047
:101E400000D00F92CDB7DEB76B0101E010E0CE01FC
:101E500005969C0140E050E0BA0180E055DF182F64
:101E6000811509F449C08090220390902303A0902B
:101E70002403B09025036CD9FD80DC01CB018819C7
:101E80009909AA09BB0984369105A105B10540F459
:101E900064E070E087E293E00E94DF068F1561F155
:101EA00004E010E09E012F5F3F4F40E050E0BA0198
:101EB00081E02ADF182F64E070E087E293E00E945F
:101EC000DF068F1127C0111529F142D96093220333
:101ED00070932303809324039093250389819A812F
:101EE000AB81BC8180931E0390931F03A0932003BA
:101EF000B093210381E00FC08091270390912803C4
:101F0000A0912903B0912A0389839A83AB83BC8370
:101F10001111E4CF80E040911E0350911F036091A6
:101F2000200370912103F601408351836283738300
:101F30000F900F900F900F900F90DF91CF911F9106
:101F40000F91FF90DF90CF90BF90AF909F908F90B8
:101F50000895A5E0B0E0EFEAFFE00C9413298D832B
:101F6000F62E6A01E22E5801809177038A3028F01C
:101F700080E02596EAE00C942F298D818730C4F308
:101F800019828A836B832C8363E070E0CE01029612
:101F90000E94DF068983F0922F01E092420100E067
:101FA00010E0980144E050E0BE016F5F7F4F83E096
:101FB000ABDE8115E9F24F2D50E09801B60184E0C7
:101FC000A3DE8115A9F2980141E050E0CE0105960B
:101FD000BC0185E099DE811559F20E2D950140E096
:101FE00050E0BA0186E090DEC4CF1F921FB61F9268
:101FF00011248F939F93AF93BF938091EE02811131
:1020000013C08091A9029091AA02A091AB02B09155
:10201000AC024196A11DB11D8093A9029093AA0222
:10202000A093AB02B093AC02BF91AF919F918F91FF
:102030001F901FBE1F9018952FB7F8948091A9028A
:102040009091AA02A091AB02B091AC022FBF08956B
:10205000ACE0B0E0EEE2F0E10C941229FE01319622
:10206000DF0188E01D928A95E9F782E1C82E82E0BF
:10207000D82E7F01AE2E9F2C0CE112E0F60181914B
:102080006F018F3F09F43DC0F894E82FE295EF709F
:10209000F0E021A18F7041E001C0440F8A95EAF77A
:1020A000922F942B91A392A1842F8095892382A3B0
:1020B000789400C0E6E1F2E031E0B12C21912F3FAD
:1020C00079F0A22FA295AF70A05EB0E08C9190E065
:1020D0002F7002C0959587952A95E2F780FF76C00C
:1020E00080E0B82A330F0E171F0741F7F6018291DF
:1020F0008F3F11F00E949B0680EA8A95F1F7F70165
:10210000B0828FEFE81AF80A86E192E08C159D05FF
:1021100009F0B4CF48E050E06A2D792D88E893E0CB
:102120000E94AF29009749F028E0EA2DF92DA8E890
:10213000B3E001900D922A95E1F70091870310E03A
:1021400001581C4F892B09F443C081E080937E0322
:1021500073DF80937C0390937D038091400481150D
:1021600009F48EC07E0189E0E80EF11CF70184E0DD
:1021700011928A95E9F7809177038A3008F04BC075
:1021800044E15FE0B701C801AED9811509F467C029
:1021900044ED5EE0B701C801A6D9811509F45FC01E
:1021A0001092770380917B0390E044E050E0B70108
:1021B00081589C4F0E94AF2921E020937A03892BFC
:1021C00009F03FC02C96EBE00C942E29832F89CF89
:1021D00080917E03811509F4C0CFE0907C03F090DC
:1021E0007D032ADF8E199F09059708F4B6CF44E0D6
:1021F00050E068E873E0C8010E94AF29892B41F0E4
:1022000084E0E8E8F3E0D80101900D928A95E1F7C7
:1022100010927E03A2CFC0907803D09079030CDF98
:102220008C199D09843F914008F0AACF80917A03D0
:10223000811541F2F70184E011928A95E9F7109235
:102240007A03E0917B03F0E0E158FC4F89859A85A1
:10225000AB85BC8580839183A283B383B3CF809108
:1022600077038F3F31F4E8DE80937803909379030E
:10227000DDCF8F5F809377038A3008F493CFF3CF5D
:10228000F80180819181A281B3818093270390938B
:102290002803A0932903B0932A0364E070E087E247
:1022A00093E00E94DF0680932603C0902B03D0901A
:1022B0002C03E0902D03F0902E03809173039091F6
:1022C0007403A0917503B0917603C816D906EA0687
:1022D000FB0609F477CFC0927303D0927403E092A7
:1022E0007503F09276030E94A808C61AD70AE80A76
:1022F000F90AC0929003D0929103E0929203F09277
:10230000930360CF99DE9C019091C3038091C40335
:10231000982B21F020930C0330930D039091C5036B
:102320008091C603982B21F020930A0330930B036E
:1023300081EC93E00C94F107611509F458C0E82F83
:10234000ED5CE33150F4F0E0E953F64D0C9455297F
:102350000E94470781958093C403D4CF0E9447070A
:10236000FACF0E94470781958093C303F6CF0E945E
:102370004707FACF0E946B078093C503EECF0E94F8
:102380006B078195F9CF0E946B0781958093C603F7
:10239000E4CF0E946B07FACF482F415D550B21E037
:1023A00001C0220F4A95EAF79091C203922B9093B5
:1023B000C2034091C803815D21E001C0220F8A95CC
:1023C000EAF7822F611509F489C0422B4093C803B4
:1023D000EDCA8091C00381608093C003BECF80911D
:1023E000C0038260F9CF8091C0038460F5CF9091E3
:1023F000C303482F50E08D3C59F42091C40327FFBC
:102400000DC01092C40391110BC01092BF0308C0FD
:102410008E3CA9F42091C40312169CF39115A9F0E7
:102420009091C5032091C603922B11F41092BE0324
:10243000415D51094830510508F4BBCF8ECF8F3C28
:1024400039F497FFEBCF1092C3039091C403DBCF15
:10245000803D19F41916BCF3E1CF2091C503893DE5
:1024600029F41216DCF61092C503D8CF8A3D19F470
:1024700027FFD4CFF8CF2091C6038B3D29F427FF47
:10248000CDCF1092C603CACF8C3D19F41216CCF3EF
:10249000C5CF282F215D283070F4FA01E15D21E0DD
:1024A00001C0220FEA95EAF720953091C203232359
:1024B0002093C203B3CF2091C0032E7F8D3D59F0EE
:1024C0002091C0032D7F8E3D31F08F3D09F0A6CFC6
:1024D0002091C0032B7F2093C003A0CF8095482379
:1024E00075CFCF93C82F8115A1F08450813A98F40D
:1024F000E0E9F2E086E992E02081C217D1F131965D
:102500008E179F07C9F76C2F8EE892E00E94510842
:102510002EDBCF9108958C2F805E883050F481E0BF
:10252000C1FD84E0C0FD880FC2FD82950E94ED04CC
:10253000EFCF8C2F855A833030F48C2F8452990B37
:102540000E940308E6CFEC2FE85AEB3150F4F0E09C
:10255000EE0FFF1FEE5AFD4F808191810E942A08E5
:10256000D8CF8C2F8D5C8331A0F661E08C2FE4DE18
:10257000D0CF8C2F0E946C08FADAC5CFCF93DF93AF
:10258000EC01805E9109089720F068E07EE02097DA
:1025900011F46CEF7DE0CE010E948C038C2FA1DF43
:1025A000DF91CF910895811561F1982F9450913A60
:1025B00018F40E946C08DBCA982F905E983058F48B
:1025C000982F81E091FD84E090FD880F92FD829527
:1025D0000E94F304F0CF982F955A933020F480E0B6
:1025E00090E00C940308982F985A9B3120F480E0D7
:1025F00090E00C942A08982F9D5C933110F460E0D1
:102600009BCE0895CF93DF93EC01CDDFCE01805EAA
:102610009109089720F061E17EE0209711F462E0D3
:102620007EE0CE010E948C03DF91CF910895EF925E
:10263000FF920F931F93CF93DF93EC017B01809167
:10264000CE0182FF5AC00091E4031091E5030C17FC
:102650001D0719F0209709F050C08091CE018B7FA3
:102660008093CE01C1E081FD0CC08091E203909186
:10267000E3039701281B390BC1E0283C310508F41E
:10268000C0E08091CE01C0FB81F98093CE016C2F18
:10269000C8010E94BA068091E10381FF08C08091C1
:1026A000CE0180618093CE0182E00E94F30480918C
:1026B000E10385FF08C08091CE0180628093CE0146
:1026C00080E20E94F304C11529F08091FA03826030
:1026D0008093FA03C8019052903308F410E0C801C7
:1026E0004DDF8091E4039091E5039C01305230333B
:1026F00008F490E087DFA4DA0EC0CE019052903348
:1027000098F48C2F90E07EDF8091E4039091E503B4
:10271000C817D90781F3E092E203F092E303CDB743
:10272000DEB7E6E00C943329CE01EDCF1F93CF93B3
:10273000DF93182FA091D303B091D403109709F41D
:1027400047C01092D5031092D6031092D103109275
:10275000D0031996CD91DD911B979E0131503F31E9
:1027600000F4D1E0C11101C0D0E01C96ED91FD91C3
:102770001E97309731F01E966D917D9180E00995FE
:10278000D823D11539F08C2F8450813A28F58C2F1D
:102790000E946C081115A9F0E091D303F091D403C5
:1027A000838584FD0EC08091D203811551F0808114
:1027B00091819C01215031092F333E4710F40E9432
:1027C000E208D5D91092D3031092D4031092D20309
:1027D000DF91CF911F910895CAD98C2FE4DEDACF13
:1027E0001092E103E0E9F2E086E011928A95E9F7C0
:1027F00080E090E00E94030880E090E00E942A08B8
:102800001092FA03B4D9E1ECF3E086E011928A95D4
:10281000E9F71092BF031092BE031092C00372CD6D
:10282000DFDF88E19AE00FB6F894A8958093600006
:102830000FBE90936000FFCFD3DF87E797E78093C9
:1028400000089093010888E19AE00FB6F894A895E3
:10285000809360000FBE90936000FFCFFC018281E7
:10286000823009F4E9CF0895AFE0B0E0EAE3F4E1A3
:102870000C940B297C01FC018481811509F4AEC004
:1028800061E0C7010E9449066C01F701858181154D
:1028900011F10091DD031091DE0301151105D9F04E
:1028A000C016D106C9F0802F90E00B3008F061C04F
:1028B0002AE0289FA001299F500D1124CA01805AA7
:1028C0009E4F89839A8360E0802F0E949007FC01CD
:1028D000892B09F051C086010093E3011093E401B4
:1028E000F701808191818093E5019093E601C80111
:1028F00091509F3140F0858107309EE7190709F01C
:102900004CC00E94B4088091CD03811509F404C124
:102910008091E1038B838091ED0389838DDB885760
:102920009C4E8093CE039093CF03F7018581811550
:1029300009F4F2C089819B81892B8D79898381116A
:1029400015C1103508F0B3C0103408F016C1063EAA
:10295000110509F4E1C0C8019052903208F0B3C0EB
:102960008681803108F4F9C0802F90E089839A83B2
:10297000ACC019821A82A7CF858184608583C0820A
:10298000D182BF0189819A8194D91092FA0361E0C2
:10299000C7010E9449068C019FCF811509F4D0C65A
:1029A000F801FE57E031F10508F064C0E652F64D3B
:1029B0000C94552980E00E94360B1092E101809121
:1029C000F703877059F0F7018581811539F08091FF
:1029D000F90382FF03C082E00E94D7042F96E2E150
:1029E0000C9427298091E1015091E2014091DA0194
:1029F00080FB47F9550F550F5C7086958370582BF7
:102A000060E070E08FE090E00E949329D8CF81E0F1
:102A10000E944A0BD4CF8FEFFBCF8AE0F9CF86EF2D
:102A2000F7CF8091DC0191E089270E94B408C7CFDD
:102A30008091E101811104C085E08093E101BFCF65
:102A40008F5F181654F081E0F8CF8091E101811179
:102A500002C083E0F2CF8150F4CF883070F387E07A
:102A6000ECCF81E08093E201AACF1092E201A7CFE0
:102A700082E0F8CF03378CE7180709F044CF809144
:102A8000CD03811511F0D3D89ACF1092E103809134
:102A9000ED0381111092ED03CFDA88579C4E80939D
:102AA000CE039093CF0381E08093CD0388CF043B86
:102AB00082E5180789F108F04BC0003482E5180759
:102AC00028F5123548F509831A838091CE0180FFDD
:102AD0005FC08DEF0E94FB0489819A818D32910540
:102AE00079F008F05EC08832910508F053C08E314D
:102AF000910508F053C0049789839A834A97B0F5EB
:102B00008091FA0382608093FA0348C0C80180561E
:102B1000924580349105B8F6F7014580411409F4D7
:102B20004DC00E358CE7180709F444C00F358CE70B
:102B3000180749F00D358CE7180709F03FC0809160
:102B40005F018115B9F110925F0180E0EFDD37CFB1
:102B5000C801805C92458097DECF812F8F718431D0
:102B6000D9F230F4823071F0823179F060D8D4CF6C
:102B70008631E1F786EE92E1F9CE8681803108F068
:102B8000F3CECACF81EE90E0F1CE85EE90E0EECEAE
:102B90008FEFA0CF89819A818A9741F70E94B70D64
:102BA000BBCF89819A818C349105C1F39C012D3270
:102BB0003240F3CF81E080935F0101CF80915F01CC
:102BC00081114DC0912F975509F0F3C0A02EB12C63
:102BD0000B3008F0F4CEF7016581802F0E9490073A
:102BE00089839A83892B09F4EACEF7018581E981EB
:102BF000FA81958180FB90F99583811509F4FAC1DA
:102C00001BDA8093DF039093E003E981FA818281EC
:102C10008F5F82838091FA039091E103892B8383F4
:102C20008091ED0384838AE08A9DF0018B9DF00DF5
:102C30001124E05AFE4F4081518160857185898160
:102C40009A810E94D807E981FA81858181FDCFC1EF
:102C5000902F812F9093DD038093DE03AAC038016B
:102C600080EE681A71085090EE038091E103582AB3
:102C70008091ED03582A88E06816710408F06DC051
:102C80009801277081E001C0880F2A95EAF7411466
:102C900009F460C0582AF701808191810E947A046A
:102CA0002091D3033091D40329833A832091DB030D
:102CB0003091DC032B833C8328E8822E22E0922E85
:102CC0002CE832E029873A8721E030E002C0220F69
:102CD000331F8A95E2F7C901330FAA0B2D839E8318
:102CE000AF83A887F401C080D180C114D10409F456
:102CF0004DC0511004C0F6018281811122C0F6013D
:102D000083819481A581B6812D813E814F81588533
:102D100082239323A423B523892B8A2B8B2B89F021
:102D20008385982F977009F487E098E069167104FD
:102D300008F0A0C0411409F499C0869581708111F2
:102D40009EC082E0880E911C89859A858815990518
:102D500049F61CC0809558229ECF411074C08091C6
:102D6000DB039091DC030817190781F41092DB0351
:102D70001092DC031092D7031092D8031092D9035B
:102D80001092DA031092D5031092D6038091D303E8
:102D90009091D403009709F415CF28E062167104CE
:102DA00008F010C1652D0E941907811102C081E051
:102DB000BDDC42D96C01F7018581811509F4ADC1F3
:102DC0008091CE0182FF04C0B60180E090E02FDC4C
:102DD00004318CE7180709F49CC105318CE718070A
:102DE00009F430C103318CE7180709F468C1C80140
:102DF0009052903308F030C11092E4031092E50332
:102E0000F7018581811509F4E5C10B359CE71907A8
:102E100009F4D7C10C359CE7190709F4C7C10A3575
:102E20009CE7190709F4CBC101309CE7190709F4A5
:102E3000D0C103309CE7190709F4C5C101151C472F
:102E400009F0C8C1F9DC0093DB031093DC030E9496
:102E5000A8086093D7037093D8038093D903909305
:102E6000DA031092D5031092D60315CF82FB882780
:102E700080F965CF411409F464CF80FF62CFF60179
:102E8000A080B1800A151B0519F4411409F459CF2B
:102E900089819A818C159D0509F453CFF60100882C
:102EA000F189E02D309721F08081811509F449CF17
:102EB000652DC6010E941907811509F442CF81E0F2
:102EC0000A151B0509F080E08421382EA114B104F5
:102ED00041F0811106C08B819C81A816B90609F0CA
:102EE00030CF80E023DCC092D303D092D40381E0C2
:102EF0008093D203F60180858093D10331100DC0F9
:102F0000A114B10451F0808191819C0124503109B8
:102F1000213A3105C8F50E946C08F6018185928539
:102F200089839A8391509F3128F489819A81907E78
:102F300089839A83BB24B39489819A8101978F33C3
:102F40009E4708F0B12CF6010484F585E02D3097FA
:102F500039F0D6011E966D917D9181E00995B822D8
:102F6000B11479F0F601818592850E9470038093F7
:102F7000D00388E06816710448F489819A810E9420
:102F8000E2080E94B70D0DC00EDBC7CF89819A8180
:102F90000497813A910558F469818EE892E00E9485
:102FA0005108311409F40ECE0E94B70D08CD0E94CD
:102FB000B70D8FE39CE90197F1F700C0000089810C
:102FC00090DAEFCFFC01208131810217130739F429
:102FD000411008C01092D20380E0A8DBF3CD411469
:102FE00009F4F0CDFC01838585FDECCDF5CF80E0C3
:102FF00090E030CE2AE02A9DC0012B9D900D112437
:10300000805A9E4F6C01FC01468157816085718515
:1030100089819A810E94D807E981FA81858181FF9F
:10302000C8CEBF01C6010E94410E8091DD03909180
:10303000DE030817190709F0BCCE1092DD031092C9
:10304000DE03B7CE9091CE01892F8E7F90FF8160F5
:103050008093CE010E94200E8091CE0180FF38C067
:103060000933110508F073C00D32110538F4083228
:10307000110508F067C00E31110530F1F7018581A7
:10308000811509F48AC08091ED039091E103982B9A
:1030900099839D7F09F45EC01092E4031092E503CA
:1030A00060E0C8010E94BA06C80168DA8091ED03A9
:1030B0008D7F0E94030582E00E94D70480CC80911E
:1030C000CE0181608093CE01F7018581811169C0B5
:1030D000C801805E9245809708F092CEF701858105
:1030E00081118ECE0F71A12CB12C45018394002E3D
:1030F00004C0880C991CAA1CBB1C0A94D2F7682D2A
:1031000083E090E00E948129B401C5010E949503EB
:1031100056CC8091CE018E7F9BCF8091CE018F7E49
:10312000013E110531F0053E110531F48091CE01CB
:103130008F7D8093CE0190CFC8019052903308F0DC
:103140008BCF5ECE0B32110509F498CFBDCF04367C
:103150001105FACF97E0A6EEB3E001900D929A9593
:10316000E1F71092E8031092E9038D7F0E940305B6
:103170000093E4031093E503C092E203D092E303CB
:1031800089818270846089838091CE01897F998151
:10319000982B99839093CE018ECFB601C80147DA60
:1031A0000ECC1092E4031092E50392CF8091F903C4
:1031B000002482FF0394802D0E94C00C00CC81E08B
:1031C000FBCF80E0F9CF6FEF7FEF80E090E00E94CF
:1031D0009B2926DBF70100811181811509F448C084
:1031E000C8010E9407068983682FC8010E94430412
:1031F000B80189810E94E6050E940D058B839983A1
:10320000F7010581D680D2948FE0D8228091F70310
:10321000877009F1C02E0115F9F0892F807F803465
:1032200069F08B81805E8830B0F0892F807E80329B
:1032300029F48B81823078F0D11469F08091F90300
:1032400082FF09C082E00E94D7048091F703877053
:10325000CC24C3948111C12CE981E295EF7089815E
:10326000803C08F066C0F0E0E651F64D0C9455291C
:10327000C8010E947A048983BBCF19811F7089819C
:10328000803110F01295107F0115B1F0111561F029
:103290008B81805E883018F08B81811107C0812F6F
:1032A0000E94ED040E94B70D8B813DC08091FA030E
:1032B000812B8093FA03F6CF8B8175D91115C9F153
:1032C0008B81805E883018F08B81811104C0812F42
:1032D0000E94F30403C0812F0E94FB040E94B70DDB
:1032E00028C019811F708981807F8983803211F005
:1032F0001295107F8B81813040F009F461C0011577
:1033000009F46CC0D11489F1CFCF8091F90382FD0B
:1033100028C0011551F0111529F0812F0E94ED04EC
:103320000E94B70D80E0DDD804C080E03CD91111C7
:10333000CECFC11409F4D4C08091F70380FDD0C072
:10334000F70115828695869586950E940B04C70124
:103350008BDA8091F7038695869586950E942504E1
:10336000BFC0011599F0D11004C0812F0E94FC0D3F
:10337000E0CF8D2D8130E9F68091ED03912F9823D8
:103380001917B9F2812B8093ED03D3CFD110D1CF90
:10339000812F0E94020E9091ED03812F892329F045
:1033A000812F809589238093ED038091EE03912FE7
:1033B000982309F4BECF109518231093EE03B9CFCC
:1033C0008D2D011521F0863008F0B3CFCECF85309A
:1033D00008F0AFCF812F0E94020EABCFD114D1F3F2
:1033E0008B81893349F48FEF97EE23E08150904031
:1033F0002040E1F700C000008B81D5D89ACF8981A9
:10340000869586958370813060F009F092CF8B812C
:1034100099819370011102C080E090E00E942A0817
:1034200088CF8B8199819370011102C080E090E078
:103430000E9403087ECF602F8B810E949C1179CF60
:103440008981837009F06BC0011148C02B812295DE
:1034500026952770220F220F8B818F7090E0A0E0BD
:10346000B0E0022E04C0880F991FAA1FBB1F0A9448
:10347000D2F73B8160E070E0AB0134FF0FC04FE05A
:1034800050E060E070E004C0440F551F661F771FD6
:103490002A95D2F74095509560957095298126958B
:1034A000269523702983223049F1233011F10091B0
:1034B000EF031091F0032091F1033091F203E981C1
:1034C000E13099F0842B952BA62BB72B80239123E9
:1034D000A223B323BC01CD010E9495030E94DE0705
:1034E00060E0C7010E94490679CA802B912BA22B6C
:1034F000B32B842B952BA62BB72BECCF842B952BA2
:10350000A62BB72B4091EF035091F0036091F1038C
:103510007091F20384279527A627B727DBCF0115E3
:1035200009F44AC0898180FFD9CF2B812295269545
:103530002770220F220F8B818F7090E0A0E0B0E007
:10354000022E04C0880F991FAA1FBB1F0A94D2F72E
:103550003B8160E070E0AB0134FF0FC04FE050E012
:1035600060E070E004C0440F551F661F771F2A9566
:10357000D2F74095509560957095298126952695AE
:1035800023702983223029F12330F1F00091F303D5
:103590001091F4032091F5033091F603E981E130B5
:1035A00079F0842B952BA62BB72B80239123A22374
:1035B000B323BC01CD0172C0823008F48FCFB5CFE8
:1035C000802B912BA22BB32B842B952BA62BB72BC7
:1035D000F0CF842B952BA62BB72B4091F303509162
:1035E000F4036091F5037091F60384279527A627CD
:1035F000B727DFCF89818F708983011531F00E9451
:103600000B048B810E94FC0D69CF8B810E94020EFE
:1036100089810E94250462CF8B81823F09F443C0D7
:1036200070F4803FD1F0813F99F0011509F473C027
:10363000D11409F46DC08B810E9471124FCF8B8120
:10364000833FC1F1843F89F79091F90392FD47C010
:1036500089818F710115E9F22AC08D2D011509F1BB
:10366000853008F03BCF89818F71898361E070E0FC
:1036700080E090E0098004C0660F771F881F991FC3
:103680000A94D2F72091F3033091F4034091F503AB
:103690005091F60362277327842795270E9402041E
:1036A0001DCF8630DECF89818F710111B2CF0E948C
:1036B0000B0414CF80E090E0BC01011579F38981FF
:1036C0008F71898381E090E0A0E0B0E0098004C0C0
:1036D000880F991FAA1FBB1F0A94D2F76ACF011542
:1036E00061F089818F7192FFE2CF982F990F990F26
:1036F000990F93609093F703DACF81E00E94D7048B
:103700008D2D823008F4EACE82E00E94D704E6CE06
:1037100089818F71CCCFD11481F08B81893349F4A9
:103720008FEF97EE23E0815090402040E1F700C0FA
:1037300000008B810E94D312D1CE89818F7169CF15
:1037400003378CE7180709F0DEC839C980913B04BC
:10375000803170F480913A04811551F0E091FC03BE
:103760002091FB0330913604409135042E1301C0A3
:103770000895BF0187E0E89FF0011124DF01A35005
:10378000BC4F14968C911497811551F111968C9120
:103790001197831325C08C91841322C015968C91A8
:1037A000159781111DC012968D919D91A09137049E
:1037B000B09138048A1B9B0B883C910588F480915A
:1037C0003B048F70806180933B04ED5FFB4F8081F1
:1037D0008F708061808385E394E046D80C94CD049B
:1037E0006F5F7F4FFB01E770C1CFADE0B0E0EBEF63
:1037F000FBE10C9410298C0186E0F801DE0118969B
:1038000001900D928A95E1F7F801F580C48085E377
:10381000882E84E0982E7090390471101FC0C11456
:10382000D1F0F11409F40CC1C8010E946E06811593
:1038300009F406C187E0F801D40101900D928A9540
:10384000E1F78C2D813031F480913504909136046C
:103850000E9464067BDFFF24F39454C0E080A280C2
:10386000B380D0903A048091370490913804950148
:10387000281B390BD11409F4C6C0283C310508F0C7
:103880009CC0C11441F390913604C18080913B04E7
:10389000803108F058C0C91214C0909135049E11AF
:1038A00010C0F1104AC08F70806180933B0485E3A3
:1038B00094E00E94341480913B04F8018683F12C3B
:1038C00021C0F1103AC040E06C2D8E2D0E94AE0454
:1038D00040E06C2D8E2D0E94AE04F82E8111EFCFAA
:1038E000888599850E946406292F22952F7090342F
:1038F00070F49F702230A0F09115B1F0F80196811C
:10390000903190F48F2D2D96EDE00C942C292A5FA8
:103910002F70223068F0C8010E943414FD2CF2CFC1
:10392000911511F0811571F3805E883058F3F3CF53
:10393000803F40F3815F8330F9CF80913B04816009
:1039400080933B04BCCFC91213C0909135049E11E3
:103950000FC0F1100DC08683C8010E94341487E0A7
:10396000F801A5E3B4E001900D928A95E1F773CFD9
:10397000C8010E946E06811509F462C0F11409F4B1
:103980005FC080913B04803278F020913504309103
:10399000360429833A83AB82BC827D821E828F8368
:1039A000CE0101960E94341487E0F801A5E3B4E04B
:1039B00001900D928A95E1F74DCF80913B048031C3
:1039C00050F485E394E00E943414F40187E01192EE
:1039D0008A95E9F774CFC11409F43DCF20913604DC
:1039E00091812913C5CF909135049E11C1CFF1105B
:1039F000BFCF8683C8010E943414F40187E011927E
:103A00008A95E9F728CF283C3105F8F6C11409F466
:103A100022CFF114A9F0909136048181981306C049
:103A2000809135048E1102C087E09BCFC8010E94AF
:103A30006E068111B9CF80913B04816080933B0475
:103A4000C8010E94341407CFABE1B0E0EAE2FDE127
:103A50000C9419294E8B5F8B688F798F8A8F192F61
:103A60009B8F91111092FA031D8A86E0FE017696D3
:103A7000DE011F9601900D928A95E1F70A8D0115DE
:103A800061F00B8B1C8B61E0CE010F960E94490602
:103A900061E0CE010F960E9449060B8B1C8B87E0DC
:103AA000FE013F96DE01189601900D928A95E1F78E
:103AB000CE0108969ADE81112EC02091FB03309131
:103AC000FC0387E0AE01485F5F4FFA0147505109A0
:103AD000DA0101900D928A95E1F78C858115D9F074
:103AE000822F90E08395877090E0AC013417150623
:103AF000E1F097E0929FD0011124A350BC4F9E01AA
:103B00002F5F3F4FF90101900D929A95E1F7409395
:103B1000FB030E94CD048091FC039091FB03891369
:103B200011C06B96E4E00C9435290E94F0131092BA
:103B3000FB031092FC03E5E3F4E087E011928A9521
:103B4000E9F7E9CF27E0829FC001112483509C4F01
:103B50004CDE811531F38091FC039091FD030196B9
:103B600087708093FC03D7CFA6E0B0E0EAEBFDE1DD
:103B70000C9419290E941C108C018091940390913F
:103B800095038017910771F019821A820E941C1008
:103B9000BC0149815A8180E090E056DF0093940394
:103BA000109395032696E4E00C943529AAE2B0E040
:103BB000ECEDFDE10C941A2989E992E0FC010196F3
:103BC0002091F100208322E0813A9207B9F7809199
:103BD0009A02893009F45AC0C8F4823009F4B7C097
:103BE000833009F486C0813091F18091E80083FF31
:103BF000EBC08091990290919A029A3008F0E4C04B
:103C0000E92FF0E0EA50F64D0C9455298A3009F47A
:103C10008DC08B3051F780919902813231F78091BC
:103C20009D0290919E02892B01F78091E800877F89
:103C30008093E8000E94AF0981E090919B0291116E
:103C400001C080E0809302010E94F013CECF8091EA
:103C50009902813A51F68091E800877F8093E800CD
:103C600080919D0290919E02892B61F060E080E03E
:103C700090E070E00E9422098091E8008B778093A9
:103C8000E800B3CF68E081EA92E0F3CF8091990237
:103C9000813209F0AACF80919D0290919E020297F5
:103CA00008F0A3CF8091E800877F8093E80080919F
:103CB000E80082FF19C02091F3008091F200922F5A
:103CC000029731F48091F100813011F0863021F4B7
:103CD0008091F100809301018091E8008B778093BF
:103CE000E8000E94AF0981CF8091F0028111DFCFFF
:103CF0007CCF80919902813A09F077CF80919D0223
:103D000090919E02892B09F070CF8091E800877F07
:103D10008093E8008091E80080FFFCCF8091020151
:103D20008093F1008091E8008E77D9CF809199023D
:103D3000813209F05ACF8091E800877F8093E800B4
:103D40000E94AF0980919C02809300014ECF809128
:103D50009902813A09F049CF8091E800877F8093EA
:103D6000E8008091E80080FFFCCF80910001D8CF6F
:103D7000803889F0823841F580919D028F708730BC
:103D800018F58093E9008091EB0085FB882780F986
:103D90001092E90006C08091EF02880F9091960280
:103DA000892B9091E800977F9093E8008093F10031
:103DB0001092F1008091E8008E7723C0811116C027
:103DC00080919B02813011F18091E80083FF0AC04D
:103DD0008091E800877F8093E8008091EB0080620B
:103DE0008093EB00AA96E3E00C943629823061F7C9
:103DF00080919B02811581F01092E9008091E8008A
:103E0000877F8093E8000E94AF09DECF933009F0EE
:103E100080E08093EF02F0CF80919D028F70282F79
:103E20002150263088F68093E9002091EB0020FF96
:103E3000E3CF933031F48091EB0080628093EB000C
:103E4000DBCF9091EB0090619093EB0021E001C0FB
:103E5000220F8A95EAF72093EA001092EA008091F7
:103E6000EB008860EBCF8111AFCF80919B028F7701
:103E7000182F8091E3008078812B8093E30080915C
:103E8000E800877F8093E8000E94AF098091E800F6
:103E900080FFFCCF8091E30080688093E30083E0A3
:103EA000111101C082E08093F0028ECF80588230E1
:103EB00008F08ACF20919B0230919C022C3D83E038
:103EC000380791F583E08A838AE289834FB7F894B3
:103ED000DE01139620E03EE051E2E32FF0E0509344
:103EE0005700849120FF03C082958F703F5F8F70D1
:103EF0008A30C0F0895C8D931D922F5F243169F761
:103F00004FBF8091E800877F8093E8006AE270E00D
:103F1000CE0101960E9422098091E8008B77809360
:103F2000E80052CF805DE7CF832F90E0833091058A
:103F300019F160F48130910509F46CC0823091056B
:103F400009F042CF8BE3EBE6F1E029C020919D021E
:103F500030919E028132910509F453C0823291055D
:103F600009F032CF2130310508F45CC009F02CCFC4
:103F70008BE7ECEAF0E013C0822F90E0213099F15A
:103F800082309105B9F1009709F01ECFE0EEF1E023
:103F9000E4918E2FE0EEF1E0009709F415CF209127
:103FA000E800277F2093E80020919F023091A00233
:103FB0008217930708F49C0140E021153105B1F503
:103FC000411134C08091E80082FDA6CF8091F002BB
:103FD000811509F4A1CF853009F49ECF8091E800C6
:103FE00083FFF0CF99CFEEECF1E0E4918E2FEEEC71
:103FF000F1E0D2CFE8EBF1E0E4918E2FE8EBF1E0D5
:10400000CBCF2130310550F009F0DECE89E0E6E972
:10401000F1E0C5CF82E1E6EAF1E0C1CF89E0EDE76A
:10402000F1E0BDCF84E4E7E2F1E0B9CF8091F002A6
:10403000811509F471CF853009F46ECF8091E800C5
:1040400083FD6ACF8091E80082FDBCCF8091E800BB
:1040500080FFB3CF4091F3008091F200942F21159F
:10406000310519F08830910550F041E0089709F0CA
:1040700040E08091E8008E778093E8009ECF4491E5
:104080004093F1003196215031090196E8CF8038F4
:1040900009F09ACE8091E800877F8093E8008091B4
:1040A00097028093F10086CE81118ECE80919B0283
:1040B000182F823008F088CE8091E800877F8093A7
:1040C000E800109397020E94AF091115A9F084E04F
:1040D0008093F00242E061EC81E00E947F0942E2BD
:1040E00061EC82E00E947F098091F002843051F4FB
:1040F00082E08093030168CE8091E30087FDE7CFE3
:1041000081E0E6CF81E0F5CFCDB7DEB72A970FB6D5
:10411000F894DEBF0FBECDBF85B7806885BF85B779
:10412000806885BF84B7877F84BF0FB6F894A89551
:1041300080916000886180936000109260000FBEE3
:1041400080E890E00FB6F89480936100909361004E
:104150000FBE81E08093030189E996E080938C0291
:1041600090938D020E944E0A0E94FF098091E20006
:1041700084608093E20078948091F002811591F040
:104180008091E9001091EC008F7010FB112717F956
:10419000182B1092E9008091E80083FD07DD1F7065
:1041A0001093E90082E084BD93E095BD9AEF97BD3E
:1041B00080936E00109290031092910310929203DC
:1041C0001092930388EC90E02091E30027FD0EC04D
:1041D000EFE3FCE93197F1F700C000000197A1F788
:1041E0000E944E0A1092F00280E001C081E08093AC
:1041F000400425982D9A869A8E9885E08A95F1F745
:10420000000083B186988E9A90EA9A95F1F785FB23
:10421000882780F9809341048093040180914004B1
:104220008111AAD68091410491E08927880F880FD7
:104230008093870394E0981B90937B0352E1E52ED3
:1042400052E0F52E06E112E0F70181917F018F3FE8
:1042500011F00E949B060E151F05B1F706E112E052
:10426000F80181918F018F3F11F00E949B0682E03F
:104270000C311807A9F7EFE7F3E088E011928A956F
:10428000E9F7E8E8F3E088E011928A95E9F780E041
:1042900090E00E947C29833E9E4F69F163EE7EEFA1
:1042A00080E090E00E949B2960E082E090E00E9424
:1042B000812981E090E08093EF031092F003109247
:1042C000F1031092F20361E083E00E94812960E033
:1042D00074E184E090E00E949B2960E070E0AB0113
:1042E0008FE090E00E94932960E070E0AB0183E1F1
:1042F00090E00E94932982E090E0F1D78093F90248
:1043000084E090E0F9D78093F8039093F90383E079
:1043100090E0E5D7682F70E080E090E00E94950380
:1043200080914004811101C02AD60E94880C81111D
:10433000EAC081E08093ED028091400481112CC09D
:1043400085E593E080934D0190934E012DE02093FD
:104350004801109249018DE280934B0110924C016B
:104360004AE553E040935501509356012093500184
:1043700010925101809353011092540149E55BE082
:1043800040935D0150935E012093580110925901B2
:1043900080935B0110925C0180E090E0ADD7833E9A
:1043A0009E4FA1F48FE090E0A2D78B01862F8F77EC
:1043B0000E94360B812F8370880F07FD81608093E8
:1043C000E1011695169513701093E20185E091E0D6
:1043D000809396039093970341E0A42EB12CCE01D5
:1043E0000196382E292E8091F00200E110E432E18E
:1043F000F32E853009F4E8C00E9428102AEFC22E5F
:1044000022E0D22E8FE793E089879A8788E092E0B6
:104410008F839887BC01AFE7B3E09601F9019191D2
:104420009F018C91FB014081842343E022303407BB
:1044300009F4D4C011966F5F7F4F981779F34090BD
:10444000400491EFE92E92E0F92E812CE985FA855E
:104450009190E987FA87EF81F8858191EF83F8875A
:104460009822F60161906F01691409F441C0692432
:1044700000E010E077247394872D862189F1572C72
:1044800059204114F9F0F701808190E09501002E48
:1044900001C0220F0A94EAF78223892B99F4098339
:1044A0008A820E941C108B839C8381E08D8391E023
:1044B000511001C090E09E8349815A816B817C81BB
:1044C0008D81C2DA51100CC08A2D002E01C0880FD8
:1044D0000A94EAF7982F9095F701808189238083C9
:1044E000770C0F5F1F4F0630110531F6F6019292DF
:1044F00083948FEFE81AF80A882D883009F0A6CF48
:104500000E94C7086EC083E015CF8091F00284300E
:1045100029F10E94FC0C1092EE0288E190E00FB6A7
:10452000F894A895809360000FBE1093600083B745
:10453000817F846083BF83B7816083BF78948895CF
:1045400083B78E7F83BF0FB6F894A89580916000E3
:10455000886180936000109260000FBE0E94281056
:10456000EFE7F3E028E032E061EF72E090E0819164
:10457000D9014D919D018423DB018D93BD0141E063
:10458000811101C040E0942B47E853E04E175F07CC
:1045900071F79115C9F08091EF028115A9F009BD5D
:1045A000F9BC09B400FEFDCF8091D8008F7D8093C7
:1045B000D8008091E00082608093E0008091E0006C
:1045C00081FDFCCF0E94F0138091F002853009F448
:1045D0009CCF0E94F0130E94DE070ECF98132FCFBE
:1045E000C3DA80914004811509F491C00091D5038C
:1045F0001091D60301151105A1F1C0900603D090CA
:104600000703E0900803F09009030E94A808DC016A
:10461000CB018C199D09AE09BF094091020350914D
:104620000303609104037091050384179507A6079F
:10463000B707B8F0C8010E94BE121092D5031092BD
:10464000D6031092060310920703109208031092EB
:1046500009031092020310920303109204031092B4
:104660000503E090DD03F090DE03E114F10439F17D
:104670000091DF031091E0030E941C10801B910B3E
:10468000893C9105E0F08E2D90E000E010E08B3049
:1046900040F42AE0289F8001299F100D1124005A20
:1046A0001E4F60E08E2D0E949007009741F0FC01A4
:1046B000258122FD04C0BC01C8010E94590E8091D1
:1046C000CE0182FF13C00E941C102091E2033091A2
:1046D000E303AC01421B530B483C510538F0BC01CD
:1046E0008091E4039091E5030E9417138091CD031C
:1046F000811569F00E941C102091CE033091CF03E8
:10470000821B930B8F3F9F4710F40E94170E0E944D
:10471000FC0C81110E94C70886E0E1ECF3E0A32DB8
:10472000B22D01900D928A95E1F71092C303109279
:10473000C4031092C5031092C6038B819C81892B00
:1047400009F44BC000910C0310910D030E941C1042
:10475000AC019091BF0321E030E0911101C020E055
:1047600022953295307F3227207F3227401B510B14
:104770002417350790F59F3F19F09F5F9093BF0373
:104780001B81111559F00E94470791E011160CF09A
:104790009FEF899F802D11248093C3031C811115E5
:1047A00059F00E94470791E011160CF09FEF899F86
:1047B000802D11248093C4038091C303811569F077
:1047C0001091C403111549F00E9439078093C30367
:1047D000812F0E9439078093C4038D819E81892B8C
:1047E00009F443C000910A0310910B030E941C10AE
:1047F000801B910B9C019091BE03911509F40FC190
:104800002135310590F19F3F19F09F5F9093BE03D2
:104810001D81111559F00E946B0791E011160CF0E3
:104820009FEF899F802D11248093C5031E81111550
:1048300059F00E946B0791E011160CF09FEF899FD1
:10484000802D11248093C6038091C503811569F0E2
:104850001091C603111549F00E9439078093C503D2
:10486000812F0E9439078093C603632D722D81EC3E
:1048700093E00E94780881110CC08091C30390914D
:10488000C403892B9091C503892B9091C603892B72
:1048900011F00E94821186E0E32DF22DA1ECB3E02D
:1048A00001900D928A95E1F70E94DE0790910E0328
:1048B000891721F080930E030E94A808809140047C
:1048C000811509F490CD0E94A808209115032111AB
:1048D00043C00091110310911203209113033091F2
:1048E00014036B017C01C01AD10AE20AF30A8601A3
:1048F0009701043F11402105310570F160931103C8
:1049000070931203809313039093140380910F0309
:1049100090911003019680930F03909310031982D6
:10492000032D122D21E040E050E060E087E00E947E
:10493000A90F811106C080910F03909110030A976F
:104940005CF081E0809315038093D00199819111EF
:1049500001C080E08093D1018091D101811509F4DB
:1049600042CD0E94A8086B017C01809116039091B2
:104970001703A0911803B09119039601A701281BF2
:10498000390B4A0B5B0BC901DA010497A105B1058C
:1049900078F119821A821B821C82032D122D24E0C9
:1049A00040E050E060E088E00E94A90F8115C1F06E
:1049B00069817A818091D6019091D7010E94F0029D
:1049C0008093D6019093D7016B817C818091D8012F
:1049D0009091D9010E94F0028093D8019093D9015F
:1049E000C0921603D0921703E0921803F0921903B5
:1049F0008091DB01811509F4F6CC8091DA0189837D
:104A000000E010E020E0432D522D61E089E00E949B
:104A1000A90F811509F4E7CC1092DB01E4CC232B1C
:104A200009F0F3CE22CF78941F921FB61F92112463
:104A30008F939F93AF93BF938091A9029091AA0205
:104A4000A091AB02B091AC020196A11DB11D809363
:104A5000A9029093AA02A093AB02B093AC02BF91BB
:104A6000AF919F918F911F901FBE1F9018951F921D
:104A70000F920FB60F9211242F933F934F935F9392
:104A80006F937F938F939F93AF93BF93EF93FF9316
:104A90008091E10082FF09C08091E20082FF05C0A1
:104AA0008091E1008B7F8093E1008091DA0080FFAC
:104AB00024C08091D80080FF20C08091DA008E7FD2
:104AC0008093DA008091D90080FFA9C080E189BD80
:104AD00082E189BD09B400FEFDCF81E08093F00240
:104AE00080919802811109C00E944E0A0E94FF091C
:104AF0008091E20084608093E2008091E10080FF79
:104B00001AC08091E20080FF16C08091E2008E7F83
:104B10008093E2008091E20080618093E2008091C6
:104B2000D80080628093D80019BC85E08093F002A1
:104B300083E0809303018091E10084FF2FC0809186
:104B4000E20084FF2BC080E189BD82E189BD09B408
:104B500000FEFDCF8091D8008F7D8093D80080919A
:104B6000E1008F7E8093E1008091E2008F7E809350
:104B7000E2008091E20081608093E20080919702E0
:104B8000811509F452C084E08093F0028091F00214
:104B9000843009F052C082E0809303018091E100EB
:104BA00083FF2CC08091E20083FF28C08091E10048
:104BB000877F8093E10082E08093F0021092970259
:104BC0008091E1008E7F8093E1008091E2008E7FF2
:104BD0008093E2008091E20080618093E20042E0F5
:104BE00060E080E00E947F098091F00088608093FF
:104BF000F00081E08093030180930201FF91EF9127
:104C0000BF91AF919F918F917F916F915F914F91E4
:104C10003F912F910F900FBE0F901F90189519BCC8
:104C20001092F0021092980268CF8091E30087FF03
:104C300002C083E0A9CF81E0A7CF81E0ADCF1F9272
:104C40000F920FB60F9211241F932F933F934F9300
:104C50005F936F937F938F939F93AF93BF93CF9304
:104C6000DF93EF93FF93E9EEF0E080811091EC0089
:104C70008F7010FB112717F9182B1082C0EFD0E0AE
:104C80008881877F888378940E94D61DE9EEF0E0C2
:104C900010828881886088831F701083FF91EF9154
:104CA000DF91CF91BF91AF919F918F917F916F9144
:104CB0005F914F913F912F911F910F900FBE0F90D9
:104CC0001F901895289A219A229A23982B9880E56C
:104CD0008CBD0895FC018091F5018F3F09F083C0E0
:104CE00080818F3F09F47FC0109244048181811537
:104CF00019F080E2809344048281909144048230D0
:104D000009F44DC0833009F44EC09460813009F439
:104D100047C08381948121E030E02817390708F4E7
:104D200044C0909144042032310509F454C008F085
:104D30003FC02830310509F449C02031310509F45C
:104D400048C022303105F1F18CB590914404892B93
:104D50008CBD80914304811519F08DB581608DBDA6
:104D600020812093F50145814093F401E22FE295E3
:104D7000EF70AE2FAF5DB0E03C912F7081E001C0CD
:104D8000880F2A95EAF7232F282B2C93EE5DF0E06D
:104D90009081411125C0892B808381E0089598601E
:104DA00090934404B6CF9C60FBCF220F331FB5CF46
:104DB0002034310599F093602038310529F690931D
:104DC0004404C2CF81E080934304BECF81E080934E
:104DD00043049160F4CF81E0809343049260EFCF6D
:104DE00080958923D9CF80E00895A6E0B0E0EAEF6E
:104DF000F6E221C289836A834B832C833D8381E061
:104E00008E83CE01019666DF2696E2E030C2CF9314
:104E1000DF938EBD0E941C10EC010DB407FE05C08F
:104E20008EB590E0DF91CF9108950E941C108C1BED
:104E30009D0B8436910588F38EEF9FEFF3CFCF93D0
:104E4000DF931EBC0E941C10EC010DB407FE05C0D0
:104E50008EB590E0DF91CF9108950E941C108C1BBD
:104E60009D0B8436910588F38EEF9FEFF3CF209151
:104E7000F5012F3F49F1E22FE295EF70AE2FAF5DC4
:104E8000B0E03C912F7081E001C0880F2A95EAF7CD
:104E9000232F282B2C93EE5DF0E02091F4019081DC
:104EA000211599F0892B80838FEF8093F5018DB5C3
:104EB0008E7F8DBD9CB580914404809589238CBDE7
:104EC0001092440410924304089580958923EBCFF7
:104ED0008EE14A9B02C08150E1F74A9BFECF0895C4
:104EE0005A9880E28A95F1F75A9A0895FC018BE06E
:104EF0008A95F1F728E080E090E031E040E14A95C2
:104F0000F1F7880F4A9B02C08160932742E04A95DF
:104F1000F1F7000040E14A95F1F7215079F720E1DF
:104F20002A95F1F729B132E03A95F1F7000030E126
:104F30003A95F1F731E022FD93272081920F90837B
:104F40000895A1E0B0E0E6EAF7E271C119828C01B0
:104F50007C01E60EF11CBCDFCE010196C7DFF80133
:104F600081938F01EE15FF05B1F781E099819111D1
:104F700080E02196E6E077C1529A5A9A08955298B5
:104F80005A9AEA9AE9E6F0E080818F7C808308955E
:104F90006150770B91E001C0990F6A95EAF7692F8C
:104FA00090E021E0611108C0911591F05A9A80E2D9
:104FB0008A95F1F75A980895362F382339F05A9A7E
:104FC000922730E23A95F1F76695ECCF5A98F9CFEF
:104FD0005A98EDCFFF920F931F93CF93DF93EC017D
:104FE0008C01060F111D8991F82E7ADF68E08F2D54
:104FF000CFDFC017D107B9F7CDB7DEB7E5E034C1D1
:105000001F920F920FB60F9211240F931F932F939D
:105010003F934F935F936F937F938F939F93AF9340
:10502000BF93EF93FF93CF93DF930F92CDB7DEB78C
:1050300019824EDFCE01019659DF082F069506959D
:105040000695282F22952570902F9570920F292F65
:10505000237096959695920F982797708981892B42
:1050600009F055C00B3008F052C080E18A95F1F785
:105070005A9A529A82E08A95F1F700C05A9888E0CD
:10508000089F80011124D801A15FBE4F1696ED91B3
:10509000FD911897309791F0609110027091110274
:1050A00014962D913D91260F371F15978D919D9147
:1050B000680F791F4C9113978C910995F801E15F66
:1050C000FE4F6381611549F0209110023091110269
:1050D00084819581820F931F7DDF02DF80E18A95B5
:1050E000F1F75A9852985A9A80E18A95F1F7F801A7
:1050F000E15FFE4F6081611549F02091100230910F
:10510000110281819281820F931F1BDFE1DE0F90DC
:10511000DF91CF91FF91EF91BF91AF919F918F91CF
:105120007F916F915F914F913F912F911F910F91BF
:105130000F900FBE0F901F9018950F931F93CF9352
:10514000DF93EC010B970CF05EC0F894529A5A98DA
:1051500085E08A95F1F700009C2F969595708C2F2D
:105160008570980F892F837096959695292F93E0D7
:10517000CC0FDD1F9A95E1F7280F822F8C2B082F7B
:10518000AFDE00C068E0802F03DF80E18A95F1F791
:1051900052985A9A4A9B30C087E090E04A992EC0B4
:1051A000FE01E15FFE4F6381611559F0209110020D
:1051B0003091110284819581820F931FC2DE811587
:1051C000F9F086DE80E28A95F1F75A98529A80E1EA
:1051D0008A95F1F7C15FDE4F6881611549F0209132
:1051E00010023091110289819A81820F931FF2DEA1
:1051F00077DE789481E008C000C0CCCF019749F4F5
:10520000529A5A9A789480E0DF91CF911F910F9132
:10521000089500C0C3CF2F923F924F925F926F923A
:105220007F928F929F92AF92BF92CF92DF92EF9236
:10523000FF920F931F93CF93DF93CDB7DEB7CA1BB7
:10524000DB0B0FB6F894DEBF0FBECDBF09942A88E2
:10525000398848885F846E847D848C849B84AA848A
:10526000B984C884DF80EE80FD800C811B81AA8117
:10527000B981CE0FD11D0FB6F894DEBF0FBECDBFE2
:10528000ED01089597FB072E16F4009406D077FDE4
:1052900008D011D007FC05D03EF4909581959F4F22
:1052A0000895709561957F4F0895EE0FFF1F05904B
:1052B000F491E02D0994AA1BBB1B51E107C0AA1F62
:1052C000BB1FA617B70710F0A61BB70B881F991FA7
:1052D0005A95A9F780959095BC01CD010895F9994B
:1052E000FECF92BD81BDF89A992780B50895A6E1B9
:1052F000B0E044E050E025C0A8E1B0E042E050E07A
:1053000020C0262FF999FECF92BD81BDF89A019752
:1053100000B4021639F01FBA20BD0FB6F894FA9AFD
:10532000F99A0FBE08950396272FECDFEADF252FA9
:10533000E9DF242FE7CF0196272FE4DFE2CFDC015E
:10534000CB01FC01F999FECF06C0F2BDE1BDF89A90
:10535000319600B40D9241505040B8F70895FB01CA
:10536000DC0104C08D910190801921F4415050401E
:10537000C8F7881B990B0895FB01DC0102C001905E
:105380000D9241505040D8F70895F894FFCFA811DE
:10539000AE11B111B711CC11CC11CC11CC11CC1173
:1053A000CC11CC11CC11BA11BF11C311C911E91123
:1053B000EF11F311DA14F21407150B150D150F1573
:1053C00011153A15181525153A153A153A153515CA
:1053D000311538153D193D1971197119FF191B1A2D
:1053E00099199919201AFA1A0C1B0C1BB81EDE1EEB
:1053F000E41EDE1EE41E331F561FE41E4720542009
:105400000000010001A508E00A2109F30AF80A00DA
:105410000000010000000000000004010000000482
:1054200005000000000000040900000000B1062093
:105430000D000000000000010A00000000F7060057
:105440000000202D0000000000000000000000000F
:10545000000000000000000000000000000000014B
:1054600000002E140000000000000000A80300004F
:10547000000000000000B203000000000000000077
:10548000BC030000000000000000C6030000000094
:1054900000000000D0030000000000000000DA035C
:1054A0000000000000000000E40300000000000015
:1054B0000000EE030000000000000000F803000000
:1054C0000000000000009E0300000000000001003A
:1054D00000000000000000000000000000000000CC
:1054E00000000000000000000000000000B0B0B0AC
:1054F000B0B0B00001FF737C22FFFFFFFF00223934
:1055000000070000000000001F1F1F3F1F1F1F3F5C
:105510002603F4F5F6F7946697C63435E200E90001
:10552000EA00B500B600B700CD008301CC008A01C7
:10553000920194012102230224022502260227025D
:105540002A02B300B4006F0070009F01CB019F02DC
:10555000A002E200E900EA00B500B600B700CD0005
:105560008301CC008A0192019401210223022402CA
:105570002502260227022A02B300B4006F00700041
:0C5580009F01CB019F02A002F601000079
:00000001FF
